{
  "_format": "hh3-artifact-1",
  "contractName": "GovCore",
  "sourceName": "contracts/GovCore.sol",
  "abi": [
    {
      "inputs": [
        {
          "internalType": "uint64",
          "name": "orgId",
          "type": "uint64"
        },
        {
          "internalType": "uint64",
          "name": "bodyId",
          "type": "uint64"
        }
      ],
      "name": "BodyDoesNotBelongToOrg",
      "type": "error"
    },
    {
      "inputs": [
        {
          "internalType": "uint64",
          "name": "bodyId",
          "type": "uint64"
        }
      ],
      "name": "BodyNotFound",
      "type": "error"
    },
    {
      "inputs": [],
      "name": "EmptyBatch",
      "type": "error"
    },
    {
      "inputs": [],
      "name": "EmptySlug",
      "type": "error"
    },
    {
      "inputs": [],
      "name": "InvalidBodyKind",
      "type": "error"
    },
    {
      "inputs": [],
      "name": "InvalidExecutorBody",
      "type": "error"
    },
    {
      "inputs": [],
      "name": "InvalidMandateTimeRange",
      "type": "error"
    },
    {
      "inputs": [
        {
          "internalType": "enum GovTypes.OrganizationStatus",
          "name": "status",
          "type": "uint8"
        }
      ],
      "name": "InvalidOrganizationStatus",
      "type": "error"
    },
    {
      "inputs": [],
      "name": "InvalidProposalType",
      "type": "error"
    },
    {
      "inputs": [],
      "name": "InvalidRoleType",
      "type": "error"
    },
    {
      "inputs": [
        {
          "internalType": "enum GovTypes.OrganizationStatus",
          "name": "current",
          "type": "uint8"
        },
        {
          "internalType": "enum GovTypes.OrganizationStatus",
          "name": "nextStatus",
          "type": "uint8"
        }
      ],
      "name": "InvalidStatusTransition",
      "type": "error"
    },
    {
      "inputs": [
        {
          "internalType": "uint64",
          "name": "mandateId",
          "type": "uint64"
        }
      ],
      "name": "MandateNotFound",
      "type": "error"
    },
    {
      "inputs": [
        {
          "internalType": "uint64",
          "name": "orgId",
          "type": "uint64"
        }
      ],
      "name": "OrganizationAlreadyFinalized",
      "type": "error"
    },
    {
      "inputs": [
        {
          "internalType": "uint64",
          "name": "orgId",
          "type": "uint64"
        }
      ],
      "name": "OrganizationNotActive",
      "type": "error"
    },
    {
      "inputs": [
        {
          "internalType": "uint64",
          "name": "orgId",
          "type": "uint64"
        }
      ],
      "name": "OrganizationNotFound",
      "type": "error"
    },
    {
      "inputs": [
        {
          "internalType": "uint64",
          "name": "orgId",
          "type": "uint64"
        },
        {
          "internalType": "uint64",
          "name": "roleId",
          "type": "uint64"
        }
      ],
      "name": "RoleDoesNotBelongToOrg",
      "type": "error"
    },
    {
      "inputs": [
        {
          "internalType": "uint64",
          "name": "roleId",
          "type": "uint64"
        }
      ],
      "name": "RoleNotFound",
      "type": "error"
    },
    {
      "inputs": [],
      "name": "SlugAlreadyExists",
      "type": "error"
    },
    {
      "inputs": [
        {
          "internalType": "address",
          "name": "actor",
          "type": "address"
        }
      ],
      "name": "Unauthorized",
      "type": "error"
    },
    {
      "inputs": [],
      "name": "ZeroAddress",
      "type": "error"
    },
    {
      "anonymous": false,
      "inputs": [
        {
          "indexed": true,
          "internalType": "uint64",
          "name": "orgId",
          "type": "uint64"
        },
        {
          "indexed": true,
          "internalType": "uint64",
          "name": "bodyId",
          "type": "uint64"
        },
        {
          "indexed": false,
          "internalType": "enum GovTypes.BodyKind",
          "name": "kind",
          "type": "uint8"
        },
        {
          "indexed": false,
          "internalType": "string",
          "name": "metadataURI",
          "type": "string"
        }
      ],
      "name": "BodyCreated",
      "type": "event"
    },
    {
      "anonymous": false,
      "inputs": [
        {
          "indexed": true,
          "internalType": "uint64",
          "name": "orgId",
          "type": "uint64"
        },
        {
          "indexed": true,
          "internalType": "uint64",
          "name": "bodyId",
          "type": "uint64"
        },
        {
          "indexed": false,
          "internalType": "bool",
          "name": "active",
          "type": "bool"
        },
        {
          "indexed": false,
          "internalType": "string",
          "name": "metadataURI",
          "type": "string"
        }
      ],
      "name": "BodyUpdated",
      "type": "event"
    },
    {
      "anonymous": false,
      "inputs": [
        {
          "indexed": true,
          "internalType": "uint64",
          "name": "orgId",
          "type": "uint64"
        },
        {
          "indexed": true,
          "internalType": "uint64",
          "name": "mandateId",
          "type": "uint64"
        },
        {
          "indexed": true,
          "internalType": "uint64",
          "name": "roleId",
          "type": "uint64"
        },
        {
          "indexed": false,
          "internalType": "uint64",
          "name": "bodyId",
          "type": "uint64"
        },
        {
          "indexed": false,
          "internalType": "address",
          "name": "holder",
          "type": "address"
        },
        {
          "indexed": false,
          "internalType": "uint64",
          "name": "startTime",
          "type": "uint64"
        },
        {
          "indexed": false,
          "internalType": "uint64",
          "name": "endTime",
          "type": "uint64"
        },
        {
          "indexed": false,
          "internalType": "uint256",
          "name": "proposalTypeMask",
          "type": "uint256"
        },
        {
          "indexed": false,
          "internalType": "uint128",
          "name": "spendingLimit",
          "type": "uint128"
        }
      ],
      "name": "MandateAssigned",
      "type": "event"
    },
    {
      "anonymous": false,
      "inputs": [
        {
          "indexed": true,
          "internalType": "uint64",
          "name": "orgId",
          "type": "uint64"
        },
        {
          "indexed": true,
          "internalType": "uint64",
          "name": "mandateId",
          "type": "uint64"
        },
        {
          "indexed": true,
          "internalType": "address",
          "name": "holder",
          "type": "address"
        }
      ],
      "name": "MandateRevoked",
      "type": "event"
    },
    {
      "anonymous": false,
      "inputs": [
        {
          "indexed": true,
          "internalType": "uint64",
          "name": "orgId",
          "type": "uint64"
        },
        {
          "indexed": false,
          "internalType": "string",
          "name": "slug",
          "type": "string"
        },
        {
          "indexed": true,
          "internalType": "address",
          "name": "admin",
          "type": "address"
        },
        {
          "indexed": false,
          "internalType": "string",
          "name": "metadataURI",
          "type": "string"
        }
      ],
      "name": "OrganizationCreated",
      "type": "event"
    },
    {
      "anonymous": false,
      "inputs": [
        {
          "indexed": true,
          "internalType": "uint64",
          "name": "orgId",
          "type": "uint64"
        },
        {
          "indexed": true,
          "internalType": "address",
          "name": "admin",
          "type": "address"
        }
      ],
      "name": "OrganizationFinalized",
      "type": "event"
    },
    {
      "anonymous": false,
      "inputs": [
        {
          "indexed": true,
          "internalType": "uint64",
          "name": "orgId",
          "type": "uint64"
        },
        {
          "indexed": false,
          "internalType": "enum GovTypes.OrganizationStatus",
          "name": "status",
          "type": "uint8"
        }
      ],
      "name": "OrganizationStatusChanged",
      "type": "event"
    },
    {
      "anonymous": false,
      "inputs": [
        {
          "indexed": true,
          "internalType": "uint64",
          "name": "orgId",
          "type": "uint64"
        },
        {
          "indexed": false,
          "internalType": "string",
          "name": "metadataURI",
          "type": "string"
        }
      ],
      "name": "OrganizationUpdated",
      "type": "event"
    },
    {
      "anonymous": false,
      "inputs": [
        {
          "indexed": true,
          "internalType": "uint64",
          "name": "orgId",
          "type": "uint64"
        },
        {
          "indexed": true,
          "internalType": "enum GovTypes.ProposalType",
          "name": "proposalType",
          "type": "uint8"
        },
        {
          "indexed": false,
          "internalType": "uint64",
          "name": "version",
          "type": "uint64"
        },
        {
          "indexed": false,
          "internalType": "uint64[]",
          "name": "requiredApprovalBodies",
          "type": "uint64[]"
        },
        {
          "indexed": false,
          "internalType": "uint64[]",
          "name": "vetoBodies",
          "type": "uint64[]"
        },
        {
          "indexed": false,
          "internalType": "uint64",
          "name": "executorBody",
          "type": "uint64"
        },
        {
          "indexed": false,
          "internalType": "uint64",
          "name": "timelockSeconds",
          "type": "uint64"
        },
        {
          "indexed": false,
          "internalType": "bool",
          "name": "enabled",
          "type": "bool"
        }
      ],
      "name": "PolicyRuleSet",
      "type": "event"
    },
    {
      "anonymous": false,
      "inputs": [
        {
          "indexed": true,
          "internalType": "uint64",
          "name": "orgId",
          "type": "uint64"
        },
        {
          "indexed": true,
          "internalType": "uint64",
          "name": "roleId",
          "type": "uint64"
        },
        {
          "indexed": true,
          "internalType": "uint64",
          "name": "bodyId",
          "type": "uint64"
        },
        {
          "indexed": false,
          "internalType": "enum GovTypes.RoleType",
          "name": "roleType",
          "type": "uint8"
        },
        {
          "indexed": false,
          "internalType": "string",
          "name": "metadataURI",
          "type": "string"
        }
      ],
      "name": "RoleCreated",
      "type": "event"
    },
    {
      "anonymous": false,
      "inputs": [
        {
          "indexed": true,
          "internalType": "uint64",
          "name": "orgId",
          "type": "uint64"
        },
        {
          "indexed": true,
          "internalType": "uint64",
          "name": "roleId",
          "type": "uint64"
        },
        {
          "indexed": false,
          "internalType": "bool",
          "name": "active",
          "type": "bool"
        },
        {
          "indexed": false,
          "internalType": "string",
          "name": "metadataURI",
          "type": "string"
        }
      ],
      "name": "RoleUpdated",
      "type": "event"
    },
    {
      "inputs": [
        {
          "internalType": "uint64",
          "name": "orgId",
          "type": "uint64"
        },
        {
          "internalType": "uint64",
          "name": "roleId",
          "type": "uint64"
        },
        {
          "internalType": "address",
          "name": "holder",
          "type": "address"
        },
        {
          "internalType": "uint64",
          "name": "startTime",
          "type": "uint64"
        },
        {
          "internalType": "uint64",
          "name": "endTime",
          "type": "uint64"
        },
        {
          "internalType": "uint256",
          "name": "proposalTypeMask",
          "type": "uint256"
        },
        {
          "internalType": "uint128",
          "name": "spendingLimit",
          "type": "uint128"
        }
      ],
      "name": "assignMandate",
      "outputs": [
        {
          "internalType": "uint64",
          "name": "mandateId",
          "type": "uint64"
        }
      ],
      "stateMutability": "nonpayable",
      "type": "function"
    },
    {
      "inputs": [
        {
          "internalType": "uint64",
          "name": "orgId",
          "type": "uint64"
        },
        {
          "components": [
            {
              "internalType": "uint64",
              "name": "roleId",
              "type": "uint64"
            },
            {
              "internalType": "address",
              "name": "holder",
              "type": "address"
            },
            {
              "internalType": "uint64",
              "name": "startTime",
              "type": "uint64"
            },
            {
              "internalType": "uint64",
              "name": "endTime",
              "type": "uint64"
            },
            {
              "internalType": "uint256",
              "name": "proposalTypeMask",
              "type": "uint256"
            },
            {
              "internalType": "uint128",
              "name": "spendingLimit",
              "type": "uint128"
            }
          ],
          "internalType": "struct GovTypes.MandateAssignInput[]",
          "name": "inputs",
          "type": "tuple[]"
        }
      ],
      "name": "batchAssignMandates",
      "outputs": [
        {
          "internalType": "uint64[]",
          "name": "mandateIds",
          "type": "uint64[]"
        }
      ],
      "stateMutability": "nonpayable",
      "type": "function"
    },
    {
      "inputs": [
        {
          "internalType": "uint64",
          "name": "orgId",
          "type": "uint64"
        },
        {
          "components": [
            {
              "internalType": "enum GovTypes.BodyKind",
              "name": "kind",
              "type": "uint8"
            },
            {
              "internalType": "string",
              "name": "metadataURI",
              "type": "string"
            }
          ],
          "internalType": "struct GovTypes.BodyCreateInput[]",
          "name": "inputs",
          "type": "tuple[]"
        }
      ],
      "name": "batchCreateBodies",
      "outputs": [
        {
          "internalType": "uint64[]",
          "name": "bodyIds",
          "type": "uint64[]"
        }
      ],
      "stateMutability": "nonpayable",
      "type": "function"
    },
    {
      "inputs": [
        {
          "internalType": "uint64",
          "name": "orgId",
          "type": "uint64"
        },
        {
          "components": [
            {
              "internalType": "uint64",
              "name": "bodyId",
              "type": "uint64"
            },
            {
              "internalType": "enum GovTypes.RoleType",
              "name": "roleType",
              "type": "uint8"
            },
            {
              "internalType": "string",
              "name": "metadataURI",
              "type": "string"
            }
          ],
          "internalType": "struct GovTypes.RoleCreateInput[]",
          "name": "inputs",
          "type": "tuple[]"
        }
      ],
      "name": "batchCreateRoles",
      "outputs": [
        {
          "internalType": "uint64[]",
          "name": "roleIds",
          "type": "uint64[]"
        }
      ],
      "stateMutability": "nonpayable",
      "type": "function"
    },
    {
      "inputs": [
        {
          "internalType": "uint64",
          "name": "orgId",
          "type": "uint64"
        },
        {
          "components": [
            {
              "internalType": "enum GovTypes.ProposalType",
              "name": "proposalType",
              "type": "uint8"
            },
            {
              "internalType": "uint64[]",
              "name": "requiredApprovalBodies",
              "type": "uint64[]"
            },
            {
              "internalType": "uint64[]",
              "name": "vetoBodies",
              "type": "uint64[]"
            },
            {
              "internalType": "uint64",
              "name": "executorBody",
              "type": "uint64"
            },
            {
              "internalType": "uint64",
              "name": "timelockSeconds",
              "type": "uint64"
            },
            {
              "internalType": "bool",
              "name": "enabled",
              "type": "bool"
            }
          ],
          "internalType": "struct GovTypes.PolicyRuleSetInput[]",
          "name": "inputs",
          "type": "tuple[]"
        }
      ],
      "name": "batchSetPolicyRules",
      "outputs": [],
      "stateMutability": "nonpayable",
      "type": "function"
    },
    {
      "inputs": [
        {
          "internalType": "uint64",
          "name": "",
          "type": "uint64"
        }
      ],
      "name": "bodies",
      "outputs": [
        {
          "internalType": "uint64",
          "name": "id",
          "type": "uint64"
        },
        {
          "internalType": "uint64",
          "name": "orgId",
          "type": "uint64"
        },
        {
          "internalType": "enum GovTypes.BodyKind",
          "name": "kind",
          "type": "uint8"
        },
        {
          "internalType": "bool",
          "name": "active",
          "type": "bool"
        },
        {
          "internalType": "uint64",
          "name": "createdAt",
          "type": "uint64"
        },
        {
          "internalType": "string",
          "name": "metadataURI",
          "type": "string"
        }
      ],
      "stateMutability": "view",
      "type": "function"
    },
    {
      "inputs": [
        {
          "internalType": "uint64",
          "name": "orgId",
          "type": "uint64"
        },
        {
          "internalType": "uint64",
          "name": "bodyId",
          "type": "uint64"
        }
      ],
      "name": "bodyBelongsToOrg",
      "outputs": [
        {
          "internalType": "bool",
          "name": "belongs",
          "type": "bool"
        }
      ],
      "stateMutability": "view",
      "type": "function"
    },
    {
      "inputs": [
        {
          "internalType": "uint64",
          "name": "orgId",
          "type": "uint64"
        },
        {
          "internalType": "address",
          "name": "actor",
          "type": "address"
        },
        {
          "internalType": "uint64",
          "name": "bodyId",
          "type": "uint64"
        },
        {
          "internalType": "enum GovTypes.RoleType",
          "name": "roleType",
          "type": "uint8"
        },
        {
          "internalType": "enum GovTypes.ProposalType",
          "name": "proposalType",
          "type": "uint8"
        }
      ],
      "name": "canActOnProposalType",
      "outputs": [
        {
          "internalType": "bool",
          "name": "canAct",
          "type": "bool"
        }
      ],
      "stateMutability": "view",
      "type": "function"
    },
    {
      "inputs": [
        {
          "internalType": "uint64",
          "name": "orgId",
          "type": "uint64"
        },
        {
          "internalType": "enum GovTypes.BodyKind",
          "name": "kind",
          "type": "uint8"
        },
        {
          "internalType": "string",
          "name": "metadataURI",
          "type": "string"
        }
      ],
      "name": "createBody",
      "outputs": [
        {
          "internalType": "uint64",
          "name": "bodyId",
          "type": "uint64"
        }
      ],
      "stateMutability": "nonpayable",
      "type": "function"
    },
    {
      "inputs": [
        {
          "internalType": "string",
          "name": "slug",
          "type": "string"
        },
        {
          "internalType": "string",
          "name": "metadataURI",
          "type": "string"
        },
        {
          "internalType": "address",
          "name": "admin",
          "type": "address"
        }
      ],
      "name": "createOrganization",
      "outputs": [
        {
          "internalType": "uint64",
          "name": "orgId",
          "type": "uint64"
        }
      ],
      "stateMutability": "nonpayable",
      "type": "function"
    },
    {
      "inputs": [
        {
          "internalType": "uint64",
          "name": "orgId",
          "type": "uint64"
        },
        {
          "internalType": "uint64",
          "name": "bodyId",
          "type": "uint64"
        },
        {
          "internalType": "enum GovTypes.RoleType",
          "name": "roleType",
          "type": "uint8"
        },
        {
          "internalType": "string",
          "name": "metadataURI",
          "type": "string"
        }
      ],
      "name": "createRole",
      "outputs": [
        {
          "internalType": "uint64",
          "name": "roleId",
          "type": "uint64"
        }
      ],
      "stateMutability": "nonpayable",
      "type": "function"
    },
    {
      "inputs": [
        {
          "internalType": "uint64",
          "name": "orgId",
          "type": "uint64"
        }
      ],
      "name": "finalizeOrganization",
      "outputs": [],
      "stateMutability": "nonpayable",
      "type": "function"
    },
    {
      "inputs": [
        {
          "internalType": "uint64",
          "name": "orgId",
          "type": "uint64"
        },
        {
          "internalType": "enum GovTypes.ProposalType",
          "name": "proposalType",
          "type": "uint8"
        }
      ],
      "name": "getPolicyRule",
      "outputs": [
        {
          "components": [
            {
              "internalType": "uint64",
              "name": "orgId",
              "type": "uint64"
            },
            {
              "internalType": "enum GovTypes.ProposalType",
              "name": "proposalType",
              "type": "uint8"
            },
            {
              "internalType": "uint64",
              "name": "version",
              "type": "uint64"
            },
            {
              "internalType": "uint64[]",
              "name": "requiredApprovalBodies",
              "type": "uint64[]"
            },
            {
              "internalType": "uint64[]",
              "name": "vetoBodies",
              "type": "uint64[]"
            },
            {
              "internalType": "uint64",
              "name": "executorBody",
              "type": "uint64"
            },
            {
              "internalType": "uint64",
              "name": "timelockSeconds",
              "type": "uint64"
            },
            {
              "internalType": "bool",
              "name": "enabled",
              "type": "bool"
            }
          ],
          "internalType": "struct GovTypes.PolicyRule",
          "name": "rule",
          "type": "tuple"
        }
      ],
      "stateMutability": "view",
      "type": "function"
    },
    {
      "inputs": [
        {
          "internalType": "uint64",
          "name": "orgId",
          "type": "uint64"
        },
        {
          "internalType": "enum GovTypes.ProposalType",
          "name": "proposalType",
          "type": "uint8"
        },
        {
          "internalType": "uint64",
          "name": "version",
          "type": "uint64"
        }
      ],
      "name": "getPolicyRuleAtVersion",
      "outputs": [
        {
          "components": [
            {
              "internalType": "uint64",
              "name": "orgId",
              "type": "uint64"
            },
            {
              "internalType": "enum GovTypes.ProposalType",
              "name": "proposalType",
              "type": "uint8"
            },
            {
              "internalType": "uint64",
              "name": "version",
              "type": "uint64"
            },
            {
              "internalType": "uint64[]",
              "name": "requiredApprovalBodies",
              "type": "uint64[]"
            },
            {
              "internalType": "uint64[]",
              "name": "vetoBodies",
              "type": "uint64[]"
            },
            {
              "internalType": "uint64",
              "name": "executorBody",
              "type": "uint64"
            },
            {
              "internalType": "uint64",
              "name": "timelockSeconds",
              "type": "uint64"
            },
            {
              "internalType": "bool",
              "name": "enabled",
              "type": "bool"
            }
          ],
          "internalType": "struct GovTypes.PolicyRule",
          "name": "rule",
          "type": "tuple"
        }
      ],
      "stateMutability": "view",
      "type": "function"
    },
    {
      "inputs": [
        {
          "internalType": "uint64",
          "name": "orgId",
          "type": "uint64"
        },
        {
          "internalType": "address",
          "name": "actor",
          "type": "address"
        },
        {
          "internalType": "enum GovTypes.RoleType",
          "name": "roleType",
          "type": "uint8"
        },
        {
          "internalType": "enum GovTypes.ProposalType",
          "name": "proposalType",
          "type": "uint8"
        }
      ],
      "name": "hasRole",
      "outputs": [
        {
          "internalType": "bool",
          "name": "hasMatchingRole",
          "type": "bool"
        }
      ],
      "stateMutability": "view",
      "type": "function"
    },
    {
      "inputs": [
        {
          "internalType": "uint64",
          "name": "orgId",
          "type": "uint64"
        },
        {
          "internalType": "address",
          "name": "actor",
          "type": "address"
        },
        {
          "internalType": "uint64",
          "name": "bodyId",
          "type": "uint64"
        }
      ],
      "name": "isBodyMember",
      "outputs": [
        {
          "internalType": "bool",
          "name": "isMember",
          "type": "bool"
        }
      ],
      "stateMutability": "view",
      "type": "function"
    },
    {
      "inputs": [
        {
          "internalType": "uint64",
          "name": "orgId",
          "type": "uint64"
        }
      ],
      "name": "isOrganizationActive",
      "outputs": [
        {
          "internalType": "bool",
          "name": "isActive",
          "type": "bool"
        }
      ],
      "stateMutability": "view",
      "type": "function"
    },
    {
      "inputs": [
        {
          "internalType": "uint64",
          "name": "orgId",
          "type": "uint64"
        },
        {
          "internalType": "address",
          "name": "actor",
          "type": "address"
        }
      ],
      "name": "isOrganizationAdmin",
      "outputs": [
        {
          "internalType": "bool",
          "name": "isAdmin",
          "type": "bool"
        }
      ],
      "stateMutability": "view",
      "type": "function"
    },
    {
      "inputs": [
        {
          "internalType": "uint64",
          "name": "orgId",
          "type": "uint64"
        }
      ],
      "name": "isOrganizationFinalized",
      "outputs": [
        {
          "internalType": "bool",
          "name": "isFinalized",
          "type": "bool"
        }
      ],
      "stateMutability": "view",
      "type": "function"
    },
    {
      "inputs": [
        {
          "internalType": "uint64",
          "name": "",
          "type": "uint64"
        }
      ],
      "name": "mandates",
      "outputs": [
        {
          "internalType": "uint64",
          "name": "id",
          "type": "uint64"
        },
        {
          "internalType": "uint64",
          "name": "orgId",
          "type": "uint64"
        },
        {
          "internalType": "uint64",
          "name": "bodyId",
          "type": "uint64"
        },
        {
          "internalType": "uint64",
          "name": "roleId",
          "type": "uint64"
        },
        {
          "internalType": "address",
          "name": "holder",
          "type": "address"
        },
        {
          "internalType": "uint64",
          "name": "startTime",
          "type": "uint64"
        },
        {
          "internalType": "uint64",
          "name": "endTime",
          "type": "uint64"
        },
        {
          "internalType": "uint256",
          "name": "proposalTypeMask",
          "type": "uint256"
        },
        {
          "internalType": "uint128",
          "name": "spendingLimit",
          "type": "uint128"
        },
        {
          "internalType": "bool",
          "name": "active",
          "type": "bool"
        },
        {
          "internalType": "bool",
          "name": "revoked",
          "type": "bool"
        }
      ],
      "stateMutability": "view",
      "type": "function"
    },
    {
      "inputs": [],
      "name": "nextBodyId",
      "outputs": [
        {
          "internalType": "uint64",
          "name": "",
          "type": "uint64"
        }
      ],
      "stateMutability": "view",
      "type": "function"
    },
    {
      "inputs": [],
      "name": "nextMandateId",
      "outputs": [
        {
          "internalType": "uint64",
          "name": "",
          "type": "uint64"
        }
      ],
      "stateMutability": "view",
      "type": "function"
    },
    {
      "inputs": [],
      "name": "nextOrgId",
      "outputs": [
        {
          "internalType": "uint64",
          "name": "",
          "type": "uint64"
        }
      ],
      "stateMutability": "view",
      "type": "function"
    },
    {
      "inputs": [],
      "name": "nextRoleId",
      "outputs": [
        {
          "internalType": "uint64",
          "name": "",
          "type": "uint64"
        }
      ],
      "stateMutability": "view",
      "type": "function"
    },
    {
      "inputs": [
        {
          "internalType": "uint64",
          "name": "",
          "type": "uint64"
        }
      ],
      "name": "organizations",
      "outputs": [
        {
          "internalType": "uint64",
          "name": "id",
          "type": "uint64"
        },
        {
          "internalType": "address",
          "name": "admin",
          "type": "address"
        },
        {
          "internalType": "enum GovTypes.OrganizationStatus",
          "name": "status",
          "type": "uint8"
        },
        {
          "internalType": "uint64",
          "name": "createdAt",
          "type": "uint64"
        },
        {
          "internalType": "string",
          "name": "slug",
          "type": "string"
        },
        {
          "internalType": "string",
          "name": "metadataURI",
          "type": "string"
        }
      ],
      "stateMutability": "view",
      "type": "function"
    },
    {
      "inputs": [
        {
          "internalType": "uint64",
          "name": "",
          "type": "uint64"
        },
        {
          "internalType": "enum GovTypes.ProposalType",
          "name": "",
          "type": "uint8"
        }
      ],
      "name": "policyVersion",
      "outputs": [
        {
          "internalType": "uint64",
          "name": "",
          "type": "uint64"
        }
      ],
      "stateMutability": "view",
      "type": "function"
    },
    {
      "inputs": [
        {
          "internalType": "enum GovTypes.ProposalType",
          "name": "proposalType",
          "type": "uint8"
        }
      ],
      "name": "proposalTypeBit",
      "outputs": [
        {
          "internalType": "uint256",
          "name": "bit",
          "type": "uint256"
        }
      ],
      "stateMutability": "pure",
      "type": "function"
    },
    {
      "inputs": [
        {
          "internalType": "uint64",
          "name": "orgId",
          "type": "uint64"
        },
        {
          "internalType": "uint64",
          "name": "mandateId",
          "type": "uint64"
        }
      ],
      "name": "revokeMandate",
      "outputs": [],
      "stateMutability": "nonpayable",
      "type": "function"
    },
    {
      "inputs": [
        {
          "internalType": "uint64",
          "name": "",
          "type": "uint64"
        }
      ],
      "name": "roles",
      "outputs": [
        {
          "internalType": "uint64",
          "name": "id",
          "type": "uint64"
        },
        {
          "internalType": "uint64",
          "name": "orgId",
          "type": "uint64"
        },
        {
          "internalType": "uint64",
          "name": "bodyId",
          "type": "uint64"
        },
        {
          "internalType": "enum GovTypes.RoleType",
          "name": "roleType",
          "type": "uint8"
        },
        {
          "internalType": "bool",
          "name": "active",
          "type": "bool"
        },
        {
          "internalType": "string",
          "name": "metadataURI",
          "type": "string"
        }
      ],
      "stateMutability": "view",
      "type": "function"
    },
    {
      "inputs": [
        {
          "internalType": "uint64",
          "name": "orgId",
          "type": "uint64"
        },
        {
          "internalType": "enum GovTypes.OrganizationStatus",
          "name": "status",
          "type": "uint8"
        }
      ],
      "name": "setOrganizationStatus",
      "outputs": [],
      "stateMutability": "nonpayable",
      "type": "function"
    },
    {
      "inputs": [
        {
          "internalType": "uint64",
          "name": "orgId",
          "type": "uint64"
        },
        {
          "internalType": "enum GovTypes.ProposalType",
          "name": "proposalType",
          "type": "uint8"
        },
        {
          "internalType": "uint64[]",
          "name": "requiredApprovalBodies",
          "type": "uint64[]"
        },
        {
          "internalType": "uint64[]",
          "name": "vetoBodies",
          "type": "uint64[]"
        },
        {
          "internalType": "uint64",
          "name": "executorBody",
          "type": "uint64"
        },
        {
          "internalType": "uint64",
          "name": "timelockSeconds",
          "type": "uint64"
        },
        {
          "internalType": "bool",
          "name": "enabled",
          "type": "bool"
        }
      ],
      "name": "setPolicyRule",
      "outputs": [],
      "stateMutability": "nonpayable",
      "type": "function"
    },
    {
      "inputs": [
        {
          "internalType": "bytes32",
          "name": "",
          "type": "bytes32"
        }
      ],
      "name": "slugExists",
      "outputs": [
        {
          "internalType": "bool",
          "name": "",
          "type": "bool"
        }
      ],
      "stateMutability": "view",
      "type": "function"
    },
    {
      "inputs": [
        {
          "internalType": "uint64",
          "name": "orgId",
          "type": "uint64"
        },
        {
          "internalType": "uint64",
          "name": "bodyId",
          "type": "uint64"
        },
        {
          "internalType": "bool",
          "name": "active",
          "type": "bool"
        },
        {
          "internalType": "string",
          "name": "metadataURI",
          "type": "string"
        }
      ],
      "name": "updateBody",
      "outputs": [],
      "stateMutability": "nonpayable",
      "type": "function"
    },
    {
      "inputs": [
        {
          "internalType": "uint64",
          "name": "orgId",
          "type": "uint64"
        },
        {
          "internalType": "string",
          "name": "metadataURI",
          "type": "string"
        }
      ],
      "name": "updateOrganizationMetadata",
      "outputs": [],
      "stateMutability": "nonpayable",
      "type": "function"
    },
    {
      "inputs": [
        {
          "internalType": "uint64",
          "name": "orgId",
          "type": "uint64"
        },
        {
          "internalType": "uint64",
          "name": "roleId",
          "type": "uint64"
        },
        {
          "internalType": "bool",
          "name": "active",
          "type": "bool"
        },
        {
          "internalType": "string",
          "name": "metadataURI",
          "type": "string"
        }
      ],
      "name": "updateRole",
      "outputs": [],
      "stateMutability": "nonpayable",
      "type": "function"
    }
  ],
  "bytecode": "0x6080806040523460315778010000000000000001000000000000000100000000000000015f5561349590816100368239f35b5f80fdfe60806040526004361015610011575f80fd5b5f3560e01c8062ba72b6146114f3578063029f0e40146114b6578063171175251461141c57806317cd54f2146113fd57806319846f5a1461132d578063241f9bcd146112be5780632b0230c91461121757806330c1d3631461116c5780634407d1ed146111355780634b31b15a1461110657806357d309f3146110b757806361f3e5e014610f7f57806365d0945a14610f3f57806369d0a3cf14610e545780636a695f7114610d59578063778b37d114610bde5780637b538a9614610b6f5780637fa4eaa514610afc5780638810fe7614610a3f5780638a5f067c14610a1a578063a057d79d146109f2578063a2f8953c14610975578063a4f31329146108ab578063bb9715a81461074b578063bf4c48e2146105ba578063c7e47e5c14610573578063d30c2467146104cb578063d92b0f0114610413578063da131b9514610397578063e09e58de14610324578063e9ca078f146102f4578063eb33277c14610279578063f205be4c14610203578063fc04f4ba146101db5763ffce42ac14610199575f80fd5b346101d75760603660031901126101d75760206101cd6101b7611951565b6101bf61193b565b6101c7611993565b91612024565b6040519015158152f35b5f80fd5b346101d7575f3660031901126101d75760206001600160401b035f5460801c16604051908152f35b346101d75760603660031901126101d75761021c611951565b60243560088110156101d757604435906001600160401b0382116101d75760209261024e6102689336906004016118f8565b92909161025a816120aa565b61026381612123565b61248c565b6001600160401b0360405191168152f35b346101d75760603660031901126101d757610292611951565b60243560058110156101d7576102ce6001600160401b0391826102b3611993565b946102bc611ef0565b50165f52600860205260405f20611bc9565b91165f526020526102f06102e460405f20612a76565b60405191829182611c3f565b0390f35b346101d75760203660031901126101d75760043560058110156101d75761031c602091611fdb565b604051908152f35b346101d75760203660031901126101d7576001600160401b03610345611951565b61034e816120aa565b61035781612123565b16805f52600260205260405f20600160ff1982541617905533907f52d3d3d18c5bb92ecaa40e6e514bd2a581ea1fa2c6b425b803713175aa73f0435f80a3005b346101d75760e03660031901126101d7576103b0611951565b6103b8611967565b6103c0611925565b91606435906001600160401b03821682036101d7576103dd61197d565b60c435926001600160801b03841684036101d75760209561026895610401856120aa565b61040a85612123565b60a43594612b0d565b346101d75760203660031901126101d7576001600160401b03610434611951565b165f5260016020526104a760405f206102f08154916104bd6001600160401b0360018301541691610473600361046c60028401611a1d565b9201611a1d565b9260405196866001600160401b03899816885260018060a01b038160401c16602089015260ff604089019160e01c16611cee565b606086015260c0608086015260c0850190611ac7565b9083820360a0850152611ac7565b346101d75760203660031901126101d7576001600160401b036104ec611951565b165f52600560205260405f208054906102f0610511600160ff8560c01c169301611a1d565b60ff6040519485946001600160401b03821686526001600160401b038260401c1660208701526001600160401b038260801c16604087015261055281611abd565b606086015260c81c161515608084015260c060a084015260c0830190611ac7565b346101d75760803660031901126101d75761058c611951565b61059461193b565b9060443560088110156101d7576064359060058210156101d7576020936101cd93612e7e565b346101d7576105c836611bdf565b906105d5859493946129cb565b6105de85612123565b60016105ea8487612e11565b805460ff60c81b191686151560c81b60ff60c81b16178155016001600160401b038311610737576106258361061f83546119a9565b83611dac565b5f601f84116001146106a557927fca22a594bf2ebdd8f497da62080dd2abeb990051cc49069fc0aebf729173328894926106959261068183806001600160401b03985f9161069a575b508160011b915f199060031b1c19161790565b90555b846040519586951698169684611ed4565b0390a3005b90508401358c61066e565b601f19841690825f5260205f20915f5b81811061071f57509285927fca22a594bf2ebdd8f497da62080dd2abeb990051cc49069fc0aebf72917332889795926001600160401b03976106959610610706575b5050600183811b019055610684565b8301355f19600386901b60f8161c1916905589806106f7565b919260206001819286890135815501940192016106b5565b634e487b7160e01b5f52604160045260245ffd5b346101d75760403660031901126101d757610764611951565b6024356001600160401b0381116101d757366023820112156101d7578060040135916001600160401b0383116101d75760248201916024369160c086020101116101d7576107b1816120aa565b6107ba81612123565b821561089c576107c983611e26565b915f5b8481106107e957604051602080825281906102f090820187611b5e565b6107fc6107f7828785611fcb565b611f60565b90602061080a828886611fcb565b0135916001600160a01b03831683036101d757610833604061082d848a88611fcb565b01611f60565b610843606061082d858b89611fcb565b6080610850858b89611fcb565b01359060a0610860868c8a611fcb565b0135926001600160801b03841684036101d757600196610880958a612b0d565b6001600160401b036108928388611ec0565b91169052016107cc565b63c2e5347d60e01b5f5260045ffd5b346101d7576108b936611b1b565b90916108c4816120aa565b6108cd81612123565b811561089c575f5b8281106108de57005b6108e9818486611f74565b359060058210156101d75761090c610902828688611f74565b6020810190611f96565b8661092861091e858984989698611f74565b6040810190611f96565b610938606061082d888c87611f74565b9160a0610956888c610950608061082d84848c611f74565b97611f74565b01359485151586036101d75760019861096f978b612751565b016108d5565b346101d75760203660031901126101d7576001600160401b03610996611951565b165f52600160205260405f20546001600160401b038116151590816109c3575b6020826040519015158152f35b60ff915060e01c1660048110156109de5760011460206109b6565b634e487b7160e01b5f52602160045260245ffd5b346101d7575f3660031901126101d75760206001600160401b035f5460401c16604051908152f35b346101d7575f3660031901126101d75760206001600160401b035f5416604051908152f35b346101d757610a4d36611b1b565b610a588392936120aa565b610a6182612123565b801561089c57610a7081611e26565b915f5b828110610a9057604051602080825281906102f090820187611b5e565b610a9e6107f7828588611f3e565b906020610aac828689611f3e565b01359160088310156101d757600192610ae091610ad7610acd85898c611f3e565b6040810190611e8e565b929091876121bd565b6001600160401b03610af28388611ec0565b9116905201610a73565b346101d75760403660031901126101d7576020610b17611951565b6001600160401b03610b2761193b565b91165f526001825260405f20546001600160401b03811615159182610b53575b50506040519015158152f35b6001600160a01b0390811660409290921c161490508280610b47565b346101d75760403660031901126101d7576020610b8a611951565b6001600160401b03610b9a611967565b165f526004825260405f20546001600160401b03811615159182610bc45750506040519015158152f35b6001600160401b0391925081169160401c16148280610b47565b346101d75760403660031901126101d757610bf7611951565b602435906001600160401b0382116101d757610c1f6001600160401b039236906004016118f8565b929091610c2b816129cb565b1690815f526001602052600360405f2001926001600160401b03811161073757610c5f81610c5986546119a9565b86611dac565b5f93601f8211600114610cd757610cad82807f7595b560e88ecff40ceddbbf6327a7826c5bee41097decfe57fcac29dc0094ea96975f91610ccc57508160011b915f199060031b1c19161790565b90555b610cc7604051928392602084526020840191611def565b0390a2005b90508501358861066e565b601f19821694815f5260205f20905f5b878110610d415750837f7595b560e88ecff40ceddbbf6327a7826c5bee41097decfe57fcac29dc0094ea969710610d28575b5050600182811b019055610cb0565b8401355f19600385901b60f8161c191690558580610d19565b90916020600181928589013581550193019101610ce7565b346101d75760403660031901126101d757610d72611951565b602435600481109182156101d75780610d926001600160401b03926129cb565b610d9b81612123565b1691825f52600160205260405f209060ff825460e01c168315610e3c5760048110156109de576003811480610e31575b610e0e57847f90915732bce0c9088e484df76838b4ce0fae59d8171125d1f53a5d01479dbc65602086610dfe8188611d72565b610e0b6040518092611cee565ba2005b63e3962ba360e01b5f52909150610e2490611ce0565b156109de5760245260445ffd5b506003841415610dcb565b639553ff8360e01b5f52610e4f84611ce0565b60245ffd5b346101d75760403660031901126101d757610e6d611951565b6001600160401b03610e7d611967565b610e86836129cb565b610e8f83612123565b16805f52600660205260405f2080546001600160401b03811615610f2c576001600160401b0380941693849160401c1603610f195760048101805460ff8160881c16610f195761ffff60801b1916600160881b179055600101546001600160a01b0316917fc4a0b3e021ff9eadcdf7660842998963f371b1b3b386fbff6bd2cfb9c802b4365f80a4005b63472511eb60e11b5f523360045260245ffd5b82631d5066e160e21b5f5260045260245ffd5b346101d7576102f06102e4610f7a6001600160401b03610f5e36611b9a565b9190610f68611ef0565b50165f52600760205260405f20611bc9565b612a76565b346101d757610f8d36611bdf565b90610f9a859493946129cb565b610fa385612123565b6001610faf8487612a09565b805460ff60881b191686151560881b60ff60881b16178155016001600160401b03831161073757610fe48361061f83546119a9565b5f601f841160011461103f57927f716d277eadc7a1039b5adc79065e53270b6785886f07af360e66411316a185b394926106959261068183806001600160401b03985f9161069a57508160011b915f199060031b1c19161790565b601f19841690825f5260205f20915f5b81811061109f57509285927f716d277eadc7a1039b5adc79065e53270b6785886f07af360e66411316a185b39795926001600160401b03976106959610610706575050600183811b019055610684565b9192602060018192868901358155019401920161104f565b346101d75760a03660031901126101d7576110d0611951565b6110d861193b565b906110e1611993565b60643560088110156101d7576084359160058310156101d7576020946101cd9461293b565b346101d75760203660031901126101d7576004355f526003602052602060ff60405f2054166040519015158152f35b346101d75760206001600160401b036111628161115136611b9a565b91165f526009845260405f20611bc9565b5416604051908152f35b346101d75760e03660031901126101d757611185611951565b60243560058110156101d7576044356001600160401b0381116101d7576111b0903690600401611aeb565b6064356001600160401b0381116101d7576111cf903690600401611aeb565b906111d861197d565b9260a435946001600160401b03861686036101d75760c4359687151588036101d757886112076112159a6120aa565b61121081612123565b612751565b005b346101d75761122536611b1b565b9161122f816120aa565b61123881612123565b821561089c5761124783611e26565b915f5b84811061126757604051602080825281906102f090820187611b5e565b611272818684611e58565b359060088210156101d7576112a260019261129b611291848a88611e58565b6020810190611e8e565b918761248c565b6001600160401b036112b48388611ec0565b911690520161124a565b346101d75760803660031901126101d7576112d7611951565b6112df611967565b906044359160088310156101d757606435916001600160401b0383116101d7576020936113136102689436906004016118f8565b93909261131f816120aa565b61132881612123565b6121bd565b346101d75760203660031901126101d7576001600160401b0361134e611951565b165f52600660205261016060405f2060ff8154916001810154906001600160401b036002820154166001600160401b036004600384015493015493604051968281168852828160401c166020890152828160801c16604089015260c01c606088015260018060a01b038116608088015260a01c1660a086015260c085015260e08401526001600160801b038116610100840152818160801c16151561012084015260881c161515610140820152f35b346101d7575f3660031901126101d75760205f5460c01c604051908152f35b346101d75760203660031901126101d7576001600160401b0361143d611951565b165f52600460205260405f208054906102f0611462600160ff8560801c169301611a1d565b6001600160401b036040519485948282168652828260401c16602087015261148981611abd565b604086015260ff8160881c161515606086015260901c16608084015260c060a084015260c0830190611ac7565b346101d75760203660031901126101d7576001600160401b036114d7611951565b165f526002602052602060ff60405f2054166040519015158152f35b346101d75760603660031901126101d7576004356001600160401b0381116101d7576115239036906004016118f8565b6024356001600160401b0381116101d7576115429036906004016118f8565b61154d939193611925565b611558368585611d2d565b8051602091909101206001600160a01b039091169283156118e95784156118da57815f52600360205260ff60405f2054166118cb575f54946001600160401b038616956001600160401b036115ac88611cfb565b16906001600160401b031916175f55604051966115c8886119e1565b86885260208801978689526040810160018152606082016001600160401b03421681526115f6368688611d2d565b9160808401928352611609368a87611d2d565b60a085019081525f8c81526001602052604090819020955186549e516001600160e01b0319909f166001600160401b0391909116179d901b68010000000000000000600160e01b03169c909c178455519060048210156109de576116756001600160401b039285611d72565b51166001600160401b036001840191166001600160401b03198254161790556002820190518051906001600160401b038211610737576116bf826116b985546119a9565b85611dac565b602090601f83116001146118655791806116f39260039695945f9261185a575b50508160011b915f199060031b1c19161790565b90555b019751938451986001600160401b038a116107375789899661171e60209c6116b985546119a9565b8b90601f83116001146117c757826117b19695937f5f4e9d71da1ffcff5c52f60fa8d40a0da551bf772253d9f9297420a992b9fe399a9b9593611775935f926117bc5750508160011b915f199060031b1c19161790565b90555b5f5260038a5260405f20600160ff198254161790556117a4604051958695604087526040870191611def565b918483038b860152611def565b0390a3604051908152f35b015190508f806116df565b601f99949392919919821690835f528a5f20915f5b8181106118405750917f5f4e9d71da1ffcff5c52f60fa8d40a0da551bf772253d9f9297420a992b9fe399a9b84926117b1999897969560019510611828575b505050811b019055611778565b01515f1960f88460031b161c191690558e808061181b565b828d015184559b8f019b8e9b506001909301928f016117dc565b015190508e806116df565b90601f19831691845f52815f20925f5b8181106118b357509160019391856003989796941061189c575b505050811b0190556116f6565b01515f1983881b60f8161c191690558d808061188f565b92936020600181928786015181550195019301611875565b6306ba232760e41b5f5260045ffd5b6319a95ceb60e01b5f5260045ffd5b63d92e233d60e01b5f5260045ffd5b9181601f840112156101d7578235916001600160401b0383116101d757602083818601950101116101d757565b604435906001600160a01b03821682036101d757565b602435906001600160a01b03821682036101d757565b600435906001600160401b03821682036101d757565b602435906001600160401b03821682036101d757565b608435906001600160401b03821682036101d757565b604435906001600160401b03821682036101d757565b90600182811c921680156119d7575b60208310146119c357565b634e487b7160e01b5f52602260045260245ffd5b91607f16916119b8565b60c081019081106001600160401b0382111761073757604052565b90601f801991011681019081106001600160401b0382111761073757604052565b9060405191825f825492611a30846119a9565b8084529360018116908115611a9b5750600114611a57575b50611a55925003836119fc565b565b90505f9291925260205f20905f915b818310611a7f575050906020611a55928201015f611a48565b6020919350806001915483858901015201910190918492611a66565b905060209250611a5594915060ff191682840152151560051b8201015f611a48565b600811156109de57565b805180835260209291819084018484015e5f828201840152601f01601f1916010190565b9181601f840112156101d7578235916001600160401b0383116101d7576020808501948460051b0101116101d757565b9060406003198301126101d7576004356001600160401b03811681036101d75791602435906001600160401b0382116101d757611b5a91600401611aeb565b9091565b90602080835192838152019201905f5b818110611b7b5750505090565b82516001600160401b0316845260209384019390920191600101611b6e565b60409060031901126101d7576004356001600160401b03811681036101d7579060243560058110156101d75790565b9060058110156109de575f5260205260405f2090565b9060806003198301126101d7576004356001600160401b03811681036101d757916024356001600160401b03811681036101d7579160443580151581036101d75791606435906001600160401b0382116101d757611b5a916004016118f8565b602081526001600160401b038251166020820152602082015160058110156109de5760408201526001600160401b03604083015116606082015261010060e0611cb0611c9a6060860151846080870152610120860190611b5e565b6080860151858203601f190160a0870152611b5e565b936001600160401b0360a08201511660c08501526001600160401b0360c082015116828501520151151591015290565b60048110156109de57600452565b9060048210156109de5752565b6001600160401b036001911601906001600160401b038211611d1957565b634e487b7160e01b5f52601160045260245ffd5b9291926001600160401b0382116107375760405191611d56601f8201601f1916602001846119fc565b8294818452818301116101d7578281602093845f960137010152565b9060048110156109de57815460ff60e01b191660e09190911b60ff60e01b16179055565b818110611da1575050565b5f8155600101611d96565b9190601f8111611dbb57505050565b611a55925f5260205f20906020601f840160051c83019310611de5575b601f0160051c0190611d96565b9091508190611dd8565b908060209392818452848401375f828201840152601f01601f1916010190565b6001600160401b0381116107375760051b60200190565b90611e3082611e0f565b611e3d60405191826119fc565b8281528092611e4e601f1991611e0f565b0190602036910137565b9190811015611e7a5760051b81013590603e19813603018212156101d7570190565b634e487b7160e01b5f52603260045260245ffd5b903590601e19813603018212156101d757018035906001600160401b0382116101d7576020019181360383136101d757565b8051821015611e7a5760209160051b010190565b604090611eed9492151581528160208201520191611def565b90565b6040519061010082018281106001600160401b03821117610737576040525f60e083828152826020820152826040820152606080820152606060808201528260a08201528260c08201520152565b9190811015611e7a5760051b81013590605e19813603018212156101d7570190565b356001600160401b03811681036101d75790565b9190811015611e7a5760051b8101359060be19813603018212156101d7570190565b903590601e19813603018212156101d757018035906001600160401b0382116101d757602001918160051b360383136101d757565b9190811015611e7a5760c0020190565b60058110156109de578015611ff45760ff600191161b90565b63ae52a1c360e01b5f5260045ffd5b9190918054831015611e7a575f52601860205f208360021c019260031b1690565b9160018060a01b0382165f52600c60205260405f206001600160401b0384165f5260205260405f20918254935f5b858110612063575050505050505f90565b6001600160401b036120758287612003565b90549060031b1c165f52600660205261209384848460405f20612f09565b61209f57600101612052565b505050505050600190565b6001600160401b0316805f52600160205260405f2054906001600160401b038216156121115760ff8260e01c1660048110156109de576001036120ff57503360409190911c6001600160a01b031603610f1957565b6390a82da560e01b5f5260045260245ffd5b633ffdcabf60e21b5f5260045260245ffd5b6001600160401b0316805f52600260205260ff60405f2054166121435750565b63b1c186cb60e01b5f5260045260245ffd5b9067ffffffffffffffff60401b82549160401b169067ffffffffffffffff60401b1916179055565b8054680100000000000000008110156107375761219f91600182018155612003565b6001600160401b0380839493549260031b9316831b921b1916179055565b9194939290926121cd8484612a09565b506121d786611abd565b851561247d575f546001600160401b03608082901c16969067ffffffffffffffff60801b61220489611cfb565b60801b16906001600160401b0360801b1916175f5560405192612226846119e1565b87845260208401946001600160401b03169384865260408101966001600160401b0316968781526060820161225a85611abd565b84815260808301916001835236612272908887611d2d565b9860a08501998a528c5f52600560205260405f2094516001600160401b03166001600160401b03166001600160401b0319865416178555516001600160401b03166122bd9085612155565b51835467ffffffffffffffff60801b191660809190911b67ffffffffffffffff60801b16178355516122ee81611abd565b6122f781611abd565b8254915161ffff60c01b1990921660c09190911b60ff60c01b161790151560c81b60ff60c81b1617815560010194519485516001600160401b038111610737578996612347826116b985546119a9565b602090601f83116001146123e857827fec309e5fd11167ae0ac5665345f9713111c696d6ddde565455e5e64c936e3e7a979695936123d8959361239e935f926123dd5750508160011b915f199060031b1c19161790565b90555b875f52600b6020526123b68760405f2061217d565b60405193836123c58695611abd565b8452604060208501526040840191611def565b0390a4565b015190505f806116df565b9796959493929190601f19821698835f52815f20995f5b81811061246257509960019284926123d89796957fec309e5fd11167ae0ac5665345f9713111c696d6ddde565455e5e64c936e3e7a9b9c9d1061244a575b505050811b0190556123a1565b01515f1960f88460031b161c191690555f808061243d565b838301518c556001909b019a8e9a50602093840193016123ff565b6337578e0360e11b5f5260045ffd5b9091939261249983611abd565b82156126f5575f54926001600160401b038460401c1695869467ffffffffffffffff60401b6124c787611cfb565b60401b169067ffffffffffffffff60401b1916175f5560016040516124eb816119e1565b8681526001600160401b03602082019616958681526125a36040830161251087611abd565b86815260608401908582526125646001600160401b036080870195814216875261253b368d8c611d2d565b9d60a089019e8f525f526004602052818060405f20995116168219895416178855511686612155565b5161256e81611abd565b61257781611abd565b8454915161ffff60801b1990921660809190911b60ff60801b161790151560881b60ff60881b16178355565b518154906001600160401b0360901b9060901b16906001600160401b0360901b19161781550194519485516001600160401b0381116107375788966125ec826116b985546119a9565b602090601f831160011461266057827f20d0dae1a37853ee41e7ff7189327cd00ce42d7f67a19098d79a80d61e5cf3d69796959361265b9593612643935f926123dd5750508160011b915f199060031b1c19161790565b90555b855f52600a6020526123b68760405f2061217d565b0390a3565b9796959493929190601f19821698835f52815f20995f5b8181106126da575099600192849261265b9796957f20d0dae1a37853ee41e7ff7189327cd00ce42d7f67a19098d79a80d61e5cf3d69b9c9d106126c2575b505050811b019055612646565b01515f1960f88460031b161c191690555f80806126b5565b838301518c556001909b019a8d9a5060209384019301612677565b6320a6ce3160e21b5f5260045ffd5b916020908281520191905f905b80821061271e5750505090565b9091928335906001600160401b03821682036101d757602080916001600160401b03600194168152019401920190612711565b939097929596919460058910156109de578815611ff45785858a97956127798a8a9884613038565b80612785858785613038565b61292c575b858b85878d8786159c8d809e61291a575b61290b575b6001600160401b0389165f52600960205260405f20906127bf91611bc9565b546001600160401b03166127d290611cfb565b9e8f906001600160401b038a165f5260096020528060405f20906127f591611bc9565b6001600160401b0383166001600160401b03198254161790556001600160401b038a165f526007602052898989898989898989898060405f209061283891611bc9565b996128429a6130bc565b6001600160401b038a165f5260086020528060405f209061286291611bc9565b6001600160401b0383165f5260205260405f209961287f9a6130bc565b604051976001600160401b0389981688526020880160c0905260c08801906128a692612704565b9086820360408801526128b892612704565b956001600160401b031660608501526001600160401b031660808401521560a08301526001600160401b031692037fe02c2f4947fff798893010a369386de7b89638fe5560b872a9a06f2c767d6e9591a3565b612915868a61306a565b6127a0565b506001600160401b038616151561279b565b6129368b8361306a565b61278a565b939192909260018060a01b0384165f52600c60205260405f206001600160401b0386165f5260205260405f20938454955f5b8781106129805750505050505050505f90565b6001600160401b036129928289612003565b90549060031b1c165f5260066020526129b2868686868660405f2061319e565b6129be5760010161296d565b5050505050505050600190565b6001600160401b0316805f52600160205260405f2054906001600160401b0382161561211157503360409190911c6001600160a01b031603610f1957565b91906001600160401b0316805f52600460205260405f20928354906001600160401b03821615612a63576001600160401b039081169160401c16819003612a4e575050565b6301ccdb8560e01b5f5260045260245260445ffd5b8263d1ecb11360e01b5f5260045260245ffd5b90612a7f611ef0565b9180546001600160401b038116845260ff8160401c169160058310156109de576001600160401b0360039260ff94602088015260481c166040860152612ac7600182016131c0565b6060860152612ad8600282016131c0565b608086015201546001600160401b03811660a08501526001600160401b038160401c1660c085015260801c16151560e0830152565b9391909496959296612b356001600160401b03612b2a8888612e11565b5460801c1686612a09565b6001600160a01b039092169283156118e9576001600160401b031680151580612dfe575b612def575f5460c081901c99906001600160c01b0319612b788c611cfb565b60c01b169060018060c01b0316175f556001600160401b03845416936040519661016088018881106001600160401b03821117610737578c998a91604052818a5260208a01906001600160401b0316998a825260408101988952606081019c6001600160401b03169c8d815260808201968b885260a08301906001600160401b03169788825260c08401918a835260e08501938c85526101008601986001600160801b03169d8e8a52610120870197600189526101408801995f8b525f52600660205260405f2097516001600160401b03166001600160401b03166001600160401b0319895416178855516001600160401b0316612c769088612155565b51865467ffffffffffffffff60801b191660809190911b67ffffffffffffffff60801b161786555185546001600160c01b031660c09190911b6001600160c01b031916178555905160018501805492516001600160e01b03199093166001600160a01b03929092169190911760a09290921b67ffffffffffffffff60a01b169190911790555160028301805467ffffffffffffffff19166001600160401b0392909216919091179055516003820155925160049093018054915170ffffffffffffffffffffffffffffffffff199092166001600160801b039094169390931790151560801b60ff60801b1617825551815460ff60881b191690151560881b60ff60881b16179055855f52600c60205260405f20875f526020528760405f2090612d9e9161217d565b546001600160401b031694604051958652602086015260408501526060840152608083015260a082015260c07ff85e9ccebe6eca4444900c78625170174269a542746a3379d46c3690d4fb2ad391a4565b6370aca5ed60e01b5f5260045ffd5b506001600160401b038916811115612b59565b91906001600160401b0316805f52600560205260405f20928354906001600160401b03821615612e6b576001600160401b039081169160401c16819003612e56575050565b6305ffad9b60e21b5f5260045260245260445ffd5b82635d2ea92560e11b5f5260045260245ffd5b92909160018060a01b0383165f52600c60205260405f206001600160401b0385165f5260205260405f20928354945f5b868110612ec057505050505050505f90565b6001600160401b03612ed28288612003565b90549060031b1c165f526006602052612ef18585858560405f20613209565b612efd57600101612eae565b50505050505050600190565b9190928254908160c01c5f526005602052612f42856001600160401b0360405f209460801c1694855f52600460205260405f2096613374565b1561301f576001600160401b031680920361301757546001600160401b03811615918215612ff6575b8215612fde575b508115612fcf575b50612fc957546001600160401b03811615159182612fa8575b5081612f9d575090565b60ff915060881c1690565b6001600160401b03919250166001600160401b038260401c1614905f612f93565b50505f90565b60ff915060c81c16155f612f7a565b608082901c6001600160401b0316141591505f612f72565b91506001600160401b0384166001600160401b038260401c16141591612f6b565b505050505f90565b50505050505f90565b9190811015611e7a5760051b0190565b90915f5b8181106130495750505050565b8061306361305d6107f76001948689613028565b85612a09565b500161303c565b906001600160401b038116156130865761308391612a09565b50565b63cd25d03960e01b5f5260045ffd5b80545f8255806130a3575050565b611a55915f52600360205f20910160021c810190611d96565b92919597999096989960018401936130d385613095565b6001600160401b0360028201996130e98b613095565b166001600160401b031982541617815560058810156109de57611a559b6001600160401b036003836131999b6131999870ffffffffffffffff00000000000000000060ff60401b61317c98549360401b16918260ff60401b19851617855560481b169170ffffffffffffffffff00000000000000001916171781550193166001600160401b031984541617835582612155565b805460ff60801b191691151560801b60ff60801b16919091179055565b61342e565b9493926001600160401b0380875460801c1691160361301f57611eed94613209565b9081546131cc81611e26565b925f5b8281106131db57505050565b806001600160401b036131f060019385612003565b90549060031b1c166132028288611ec0565b52016131cf565b929190918354908160c01c5f5260056020526001600160401b0360405f209260801c1691825f52600460205260405f209360058810156109de57871561336857856132549188613374565b1561335d5754906001600160401b0382161592831561333c575b8315613324575b5082156132ff575b5081156132f0575b5061301757546001600160401b038116159182156132ce575b5081156132bf575b50612fc95760036132b991015491611fdb565b16151590565b60ff915060881c16155f6132a6565b6001600160401b03919250166001600160401b038260401c161415905f61329e565b60ff915060c81c16155f613285565b90915060ff8260c01c1661331282611abd565b61331b81611abd565b1415905f61327d565b608083901c6001600160401b0316141592505f613275565b92506001600160401b0385166001600160401b038360401c1614159261326e565b505050505050505f90565b50505050505050505f90565b906001600160401b03421692600483015460ff8160801c1615908115613420575b50613017576001830154916001600160a01b0380841691161480159190613405575b506133fe5760a01c6001600160401b03168210612fc957600201546001600160401b031680151591826133f4575b50506133f057600190565b5f90565b1190505f806133e5565b5050505f90565b90506001600160401b0380845460401c16911614155f6133b7565b60ff915060881c165f613395565b90915f5b81811061343f5750505050565b806134596134536107f76001948689613028565b8561217d565b0161343256fea2646970667358221220b0a44b5d0b0859c0cc18d3c16671c0cb0851352a38fbdf9839d2aedd99d5451b64736f6c634300081c0033",
  "linkReferences": {},
  "deployedLinkReferences": {},
  "immutableReferences": {},
  "inputSourceName": "project/contracts/GovCore.sol",
  "buildInfoId": "solc-0_8_28-d21485bdaae2c6a8a7a052bab8fc65b6eb1a093c"
}