{
  "_format": "hh3-artifact-1",
  "contractName": "GovProposals",
  "sourceName": "contracts/GovProposals.sol",
  "abi": [
    {
      "inputs": [
        {
          "internalType": "address",
          "name": "govCoreAddress",
          "type": "address"
        },
        {
          "internalType": "address",
          "name": "demoTargetAddress",
          "type": "address"
        }
      ],
      "stateMutability": "nonpayable",
      "type": "constructor"
    },
    {
      "inputs": [
        {
          "internalType": "uint64",
          "name": "proposalId",
          "type": "uint64"
        },
        {
          "internalType": "uint64",
          "name": "bodyId",
          "type": "uint64"
        }
      ],
      "name": "AlreadyApproved",
      "type": "error"
    },
    {
      "inputs": [
        {
          "internalType": "uint64",
          "name": "proposalId",
          "type": "uint64"
        },
        {
          "internalType": "uint64",
          "name": "bodyId",
          "type": "uint64"
        }
      ],
      "name": "AlreadyVetoed",
      "type": "error"
    },
    {
      "inputs": [
        {
          "internalType": "uint64",
          "name": "bodyId",
          "type": "uint64"
        }
      ],
      "name": "BodyNotRequiredApprover",
      "type": "error"
    },
    {
      "inputs": [
        {
          "internalType": "uint64",
          "name": "bodyId",
          "type": "uint64"
        }
      ],
      "name": "BodyNotVetoer",
      "type": "error"
    },
    {
      "inputs": [
        {
          "internalType": "bytes32",
          "name": "expected",
          "type": "bytes32"
        },
        {
          "internalType": "bytes32",
          "name": "actual",
          "type": "bytes32"
        }
      ],
      "name": "DataHashMismatch",
      "type": "error"
    },
    {
      "inputs": [
        {
          "internalType": "bytes",
          "name": "reason",
          "type": "bytes"
        }
      ],
      "name": "ExecutionFailed",
      "type": "error"
    },
    {
      "inputs": [
        {
          "internalType": "uint256",
          "name": "expected",
          "type": "uint256"
        },
        {
          "internalType": "uint256",
          "name": "actual",
          "type": "uint256"
        }
      ],
      "name": "InvalidExecutionValue",
      "type": "error"
    },
    {
      "inputs": [
        {
          "internalType": "enum GovTypes.ProposalStatus",
          "name": "current",
          "type": "uint8"
        }
      ],
      "name": "InvalidProposalStatus",
      "type": "error"
    },
    {
      "inputs": [],
      "name": "InvalidProposalType",
      "type": "error"
    },
    {
      "inputs": [
        {
          "internalType": "uint64",
          "name": "proposalId",
          "type": "uint64"
        }
      ],
      "name": "MissingRequiredApprovals",
      "type": "error"
    },
    {
      "inputs": [
        {
          "internalType": "uint64",
          "name": "orgId",
          "type": "uint64"
        },
        {
          "internalType": "enum GovTypes.ProposalType",
          "name": "proposalType",
          "type": "uint8"
        }
      ],
      "name": "PolicyRuleNotEnabled",
      "type": "error"
    },
    {
      "inputs": [
        {
          "internalType": "uint64",
          "name": "orgId",
          "type": "uint64"
        },
        {
          "internalType": "uint64",
          "name": "proposalId",
          "type": "uint64"
        }
      ],
      "name": "ProposalDoesNotBelongToOrg",
      "type": "error"
    },
    {
      "inputs": [
        {
          "internalType": "uint64",
          "name": "proposalId",
          "type": "uint64"
        }
      ],
      "name": "ProposalNotFound",
      "type": "error"
    },
    {
      "inputs": [
        {
          "internalType": "address",
          "name": "target",
          "type": "address"
        }
      ],
      "name": "TargetNotAllowed",
      "type": "error"
    },
    {
      "inputs": [
        {
          "internalType": "uint64",
          "name": "proposalId",
          "type": "uint64"
        },
        {
          "internalType": "uint64",
          "name": "executableAt",
          "type": "uint64"
        }
      ],
      "name": "TimelockNotExpired",
      "type": "error"
    },
    {
      "inputs": [
        {
          "internalType": "address",
          "name": "actor",
          "type": "address"
        }
      ],
      "name": "Unauthorized",
      "type": "error"
    },
    {
      "inputs": [],
      "name": "ZeroAddress",
      "type": "error"
    },
    {
      "anonymous": false,
      "inputs": [
        {
          "indexed": true,
          "internalType": "uint64",
          "name": "orgId",
          "type": "uint64"
        },
        {
          "indexed": true,
          "internalType": "uint64",
          "name": "proposalId",
          "type": "uint64"
        },
        {
          "indexed": true,
          "internalType": "uint64",
          "name": "bodyId",
          "type": "uint64"
        },
        {
          "indexed": false,
          "internalType": "address",
          "name": "actor",
          "type": "address"
        }
      ],
      "name": "ProposalApproved",
      "type": "event"
    },
    {
      "anonymous": false,
      "inputs": [
        {
          "indexed": true,
          "internalType": "uint64",
          "name": "orgId",
          "type": "uint64"
        },
        {
          "indexed": true,
          "internalType": "uint64",
          "name": "proposalId",
          "type": "uint64"
        },
        {
          "indexed": true,
          "internalType": "address",
          "name": "actor",
          "type": "address"
        }
      ],
      "name": "ProposalCancelled",
      "type": "event"
    },
    {
      "anonymous": false,
      "inputs": [
        {
          "indexed": true,
          "internalType": "uint64",
          "name": "orgId",
          "type": "uint64"
        },
        {
          "indexed": true,
          "internalType": "uint64",
          "name": "proposalId",
          "type": "uint64"
        },
        {
          "indexed": true,
          "internalType": "enum GovTypes.ProposalType",
          "name": "proposalType",
          "type": "uint8"
        },
        {
          "indexed": false,
          "internalType": "uint64",
          "name": "policyVersion",
          "type": "uint64"
        },
        {
          "indexed": false,
          "internalType": "address",
          "name": "creator",
          "type": "address"
        },
        {
          "indexed": false,
          "internalType": "address",
          "name": "target",
          "type": "address"
        },
        {
          "indexed": false,
          "internalType": "uint256",
          "name": "value",
          "type": "uint256"
        },
        {
          "indexed": false,
          "internalType": "bytes32",
          "name": "dataHash",
          "type": "bytes32"
        },
        {
          "indexed": false,
          "internalType": "string",
          "name": "metadataURI",
          "type": "string"
        }
      ],
      "name": "ProposalCreated",
      "type": "event"
    },
    {
      "anonymous": false,
      "inputs": [
        {
          "indexed": true,
          "internalType": "uint64",
          "name": "orgId",
          "type": "uint64"
        },
        {
          "indexed": true,
          "internalType": "uint64",
          "name": "proposalId",
          "type": "uint64"
        },
        {
          "indexed": true,
          "internalType": "address",
          "name": "executor",
          "type": "address"
        },
        {
          "indexed": false,
          "internalType": "address",
          "name": "target",
          "type": "address"
        },
        {
          "indexed": false,
          "internalType": "bytes32",
          "name": "dataHash",
          "type": "bytes32"
        }
      ],
      "name": "ProposalExecuted",
      "type": "event"
    },
    {
      "anonymous": false,
      "inputs": [
        {
          "indexed": true,
          "internalType": "uint64",
          "name": "orgId",
          "type": "uint64"
        },
        {
          "indexed": true,
          "internalType": "uint64",
          "name": "proposalId",
          "type": "uint64"
        },
        {
          "indexed": false,
          "internalType": "uint64",
          "name": "queuedAt",
          "type": "uint64"
        },
        {
          "indexed": false,
          "internalType": "uint64",
          "name": "executableAt",
          "type": "uint64"
        }
      ],
      "name": "ProposalQueued",
      "type": "event"
    },
    {
      "anonymous": false,
      "inputs": [
        {
          "indexed": true,
          "internalType": "uint64",
          "name": "orgId",
          "type": "uint64"
        },
        {
          "indexed": true,
          "internalType": "uint64",
          "name": "proposalId",
          "type": "uint64"
        },
        {
          "indexed": false,
          "internalType": "enum GovTypes.ProposalStatus",
          "name": "previousStatus",
          "type": "uint8"
        },
        {
          "indexed": false,
          "internalType": "enum GovTypes.ProposalStatus",
          "name": "newStatus",
          "type": "uint8"
        }
      ],
      "name": "ProposalStatusChanged",
      "type": "event"
    },
    {
      "anonymous": false,
      "inputs": [
        {
          "indexed": true,
          "internalType": "uint64",
          "name": "orgId",
          "type": "uint64"
        },
        {
          "indexed": true,
          "internalType": "uint64",
          "name": "proposalId",
          "type": "uint64"
        },
        {
          "indexed": true,
          "internalType": "uint64",
          "name": "bodyId",
          "type": "uint64"
        },
        {
          "indexed": false,
          "internalType": "address",
          "name": "actor",
          "type": "address"
        }
      ],
      "name": "ProposalVetoed",
      "type": "event"
    },
    {
      "inputs": [
        {
          "internalType": "uint64",
          "name": "orgId",
          "type": "uint64"
        },
        {
          "internalType": "uint64",
          "name": "proposalId",
          "type": "uint64"
        },
        {
          "internalType": "uint64",
          "name": "bodyId",
          "type": "uint64"
        }
      ],
      "name": "approveProposal",
      "outputs": [],
      "stateMutability": "nonpayable",
      "type": "function"
    },
    {
      "inputs": [
        {
          "internalType": "uint64",
          "name": "orgId",
          "type": "uint64"
        },
        {
          "internalType": "uint64",
          "name": "proposalId",
          "type": "uint64"
        }
      ],
      "name": "cancelProposal",
      "outputs": [],
      "stateMutability": "nonpayable",
      "type": "function"
    },
    {
      "inputs": [
        {
          "internalType": "uint64",
          "name": "orgId",
          "type": "uint64"
        },
        {
          "internalType": "enum GovTypes.ProposalType",
          "name": "proposalType",
          "type": "uint8"
        },
        {
          "internalType": "address",
          "name": "target",
          "type": "address"
        },
        {
          "internalType": "uint256",
          "name": "value",
          "type": "uint256"
        },
        {
          "internalType": "bytes32",
          "name": "dataHash",
          "type": "bytes32"
        },
        {
          "internalType": "string",
          "name": "metadataURI",
          "type": "string"
        }
      ],
      "name": "createProposal",
      "outputs": [
        {
          "internalType": "uint64",
          "name": "proposalId",
          "type": "uint64"
        }
      ],
      "stateMutability": "nonpayable",
      "type": "function"
    },
    {
      "inputs": [],
      "name": "demoTarget",
      "outputs": [
        {
          "internalType": "address",
          "name": "",
          "type": "address"
        }
      ],
      "stateMutability": "view",
      "type": "function"
    },
    {
      "inputs": [
        {
          "internalType": "uint64",
          "name": "orgId",
          "type": "uint64"
        },
        {
          "internalType": "uint64",
          "name": "proposalId",
          "type": "uint64"
        },
        {
          "internalType": "bytes",
          "name": "actionData",
          "type": "bytes"
        }
      ],
      "name": "executeProposal",
      "outputs": [],
      "stateMutability": "payable",
      "type": "function"
    },
    {
      "inputs": [],
      "name": "govCore",
      "outputs": [
        {
          "internalType": "contract IGovCore",
          "name": "",
          "type": "address"
        }
      ],
      "stateMutability": "view",
      "type": "function"
    },
    {
      "inputs": [],
      "name": "nextProposalId",
      "outputs": [
        {
          "internalType": "uint64",
          "name": "",
          "type": "uint64"
        }
      ],
      "stateMutability": "view",
      "type": "function"
    },
    {
      "inputs": [
        {
          "internalType": "uint64",
          "name": "",
          "type": "uint64"
        },
        {
          "internalType": "uint64",
          "name": "",
          "type": "uint64"
        }
      ],
      "name": "proposalApprovals",
      "outputs": [
        {
          "internalType": "bool",
          "name": "",
          "type": "bool"
        }
      ],
      "stateMutability": "view",
      "type": "function"
    },
    {
      "inputs": [
        {
          "internalType": "uint64",
          "name": "",
          "type": "uint64"
        },
        {
          "internalType": "uint64",
          "name": "",
          "type": "uint64"
        }
      ],
      "name": "proposalDecisionActor",
      "outputs": [
        {
          "internalType": "address",
          "name": "",
          "type": "address"
        }
      ],
      "stateMutability": "view",
      "type": "function"
    },
    {
      "inputs": [
        {
          "internalType": "uint64",
          "name": "",
          "type": "uint64"
        },
        {
          "internalType": "uint64",
          "name": "",
          "type": "uint64"
        }
      ],
      "name": "proposalVetoes",
      "outputs": [
        {
          "internalType": "bool",
          "name": "",
          "type": "bool"
        }
      ],
      "stateMutability": "view",
      "type": "function"
    },
    {
      "inputs": [
        {
          "internalType": "uint64",
          "name": "",
          "type": "uint64"
        }
      ],
      "name": "proposals",
      "outputs": [
        {
          "internalType": "uint64",
          "name": "id",
          "type": "uint64"
        },
        {
          "internalType": "uint64",
          "name": "orgId",
          "type": "uint64"
        },
        {
          "internalType": "enum GovTypes.ProposalType",
          "name": "proposalType",
          "type": "uint8"
        },
        {
          "internalType": "uint64",
          "name": "policyVersion",
          "type": "uint64"
        },
        {
          "internalType": "enum GovTypes.ProposalStatus",
          "name": "status",
          "type": "uint8"
        },
        {
          "internalType": "address",
          "name": "creator",
          "type": "address"
        },
        {
          "internalType": "address",
          "name": "target",
          "type": "address"
        },
        {
          "internalType": "uint256",
          "name": "value",
          "type": "uint256"
        },
        {
          "internalType": "bytes32",
          "name": "dataHash",
          "type": "bytes32"
        },
        {
          "internalType": "uint64",
          "name": "createdAt",
          "type": "uint64"
        },
        {
          "internalType": "uint64",
          "name": "queuedAt",
          "type": "uint64"
        },
        {
          "internalType": "uint64",
          "name": "executableAt",
          "type": "uint64"
        },
        {
          "internalType": "uint64",
          "name": "executedAt",
          "type": "uint64"
        },
        {
          "internalType": "string",
          "name": "metadataURI",
          "type": "string"
        }
      ],
      "stateMutability": "view",
      "type": "function"
    },
    {
      "inputs": [
        {
          "internalType": "uint64",
          "name": "orgId",
          "type": "uint64"
        },
        {
          "internalType": "uint64",
          "name": "proposalId",
          "type": "uint64"
        }
      ],
      "name": "queueProposal",
      "outputs": [],
      "stateMutability": "nonpayable",
      "type": "function"
    },
    {
      "inputs": [
        {
          "internalType": "uint64",
          "name": "orgId",
          "type": "uint64"
        },
        {
          "internalType": "uint64",
          "name": "proposalId",
          "type": "uint64"
        },
        {
          "internalType": "uint64",
          "name": "bodyId",
          "type": "uint64"
        }
      ],
      "name": "vetoProposal",
      "outputs": [],
      "stateMutability": "nonpayable",
      "type": "function"
    }
  ],
  "bytecode": "0x60c0346100f357601f61217938819003918201601f19168301916001600160401b038311848410176100f75780849260409485528339810103126100f357610052602061004b8361010b565b920161010b565b5f80546001600160401b0319166001179055906001600160a01b0316801580156100e2575b6100d35760805260a05260405161205990816101208239608051818181610172015281816103bc01528181610b1e01528181610c0b01528181610f7c015281816116fe0152611b06015260a051818181610fd1015261152e0152f35b63d92e233d60e01b5f5260045ffd5b506001600160a01b03821615610077565b5f80fd5b634e487b7160e01b5f52604160045260245ffd5b51906001600160a01b03821682036100f35756fe6080806040526004361015610012575f80fd5b5f3560e01c9081630ea22ba21461151c575080631f687211146114c35780632479bed61461146a5780632ab09d141461144557806331c5eec814611279578063554f5c0f1461124d5780638414b52514610e7557806387ad23cc14610d585780638ac6821c14610b4d5780639711a71314610b09578063b14b29af14610aac578063d3ec9885146103305763e194adf6146100ab575f80fd5b346102c65760603660031901126102c6576100c461155d565b6100cc611573565b6100d4611589565b6100de82846118e5565b80549360ff8560c81c1660098110156102dd57600181141580610325575b61030d5750606061010c83611af3565b0190610119848351611f07565b156102f1576040516357d309f360e01b81526001600160401b039182166004820181905233602483015294909116604482018190529561016a906004606484015260ff608484019160801c16611622565b60208160a4817f00000000000000000000000000000000000000000000000000000000000000006001600160a01b03165afa9081156102d2575f91610294575b5015610281576001600160401b03841693845f52600260205260405f20865f5260205260ff60405f20541661026a575f8581526002602090815260408083208984528252808320805460ff1916600117905587835260048252808320898452909152902080546001600160a01b03191633179055905161022991611f47565b61025b575b507f256c97ca2ab7adb2b61d52597fa761ce30ee108c2a6976b89364a3c4454b71196020604051338152a4005b61026490611dc1565b5f61022e565b858563102aa7fd60e31b5f5260045260245260445ffd5b63472511eb60e11b5f523360045260245ffd5b90506020813d6020116102ca575b816102af602093836115f3565b810103126102c6576102c09061169b565b5f6101aa565b5f80fd5b3d91506102a2565b6040513d5f823e3d90fd5b634e487b7160e01b5f52602160045260245ffd5b6001600160401b038463d40f8b1360e01b5f521660045260245ffd5b63735671c760e11b5f526103209061162f565b60245ffd5b5060028114156100fc565b346102c65760c03660031901126102c65761034961155d565b60243560058110156102c6576044356001600160a01b03811691908290036102c6576084359160643560a4356001600160401b0381116102c65761039190369060040161166e565b9061039a611952565b506040516328be254f60e21b81526001600160401b03881660048201819052977f00000000000000000000000000000000000000000000000000000000000000006001600160a01b031697916020816024818c5afa9081156102d2575f91610a72575b5015610a5a578615610a4b576040516332e84a2d60e11b8152600481018a90529761042b60248a0189611622565b5f89604481845afa9889156102d2575f99610a27575b5060e089015115610a0a576060890151516109fd5761048e60206003935b604051637fa4eaa560e01b81526001600160401b03909116600482015233602482015291829081906044820190565b0381855afa9081156102d2575f916109c3575b50159081610939575b50610281575f546001600160401b0381169860018a01916001600160401b038311610925576001600160401b0360409316906001600160401b031916175f5501906001600160401b03825116906040516101c081018181106001600160401b03821117610911576040528a8152602081018c8152604082018b815260608301948552608083019460098510156102dd57898b8f978e9781528b60a088019133835260c08901998a5260e089019384526101008901958d87526101208a0197426001600160401b031689526101408b01995f8b526101608c01945f86526101808d01985f8a52369061059a9261188b565b6101a08d019081525f9e8f52600160205260409e8f90209c518d5492516fffffffffffffffffffffffffffffffff199093166001600160401b039091161791909e1b67ffffffffffffffff60401b16178b55519060058210156102dd578a54906001600160401b0360881b905160881b169160ff60801b9060801b169068ffffffffffffffffff60801b1916171789555160098110156102dd576001600160401b03610723988197610703968c600260069f869961065b6106db99856118c1565b516001840180546001600160a01b03199081166001600160a01b03938416179091559151929093018054909116919092161790555160038d01555160048c0155975160058b018054831916918316919091178155975116879067ffffffffffffffff60401b82549160401b169067ffffffffffffffff60401b1916179055565b51855467ffffffffffffffff60801b1916911660801b67ffffffffffffffff60801b16178455565b5182546001600160c01b0316911660c01b6001600160c01b031916179055565b0190518051906001600160401b03821161091157610741835461159f565b601f81116108cc575b509160209b979593918b999795938d90601f831160011461080e57937f4c9e0d9e0ead2a0664ad77008b0d34125517212b65ffdf58a9c32e7d0da00b0b99989693838997946001600160401b039460e09b985f92610803575b50508160011b915f199060031b1c19161790555b5116946040519788968752338f88015260408701526060860152608085015260c060a08501528160c0850152848401375f828201840152601f01601f19168101030190a4604051908152f35b015190505f806107a3565b601f9b9a9998979695949392919b19821690835f528c5f20915f5b818110610898575083899896937f4c9e0d9e0ead2a0664ad77008b0d34125517212b65ffdf58a9c32e7d0da00b0b9d9e9f60e09c9b9997946001600160401b039760019510610880575b505050811b0190556107b7565b01515f1960f88460031b161c191690555f8080610873565b939597999b9d9496989a9c5090916020600181928786015181550195019301908f9c9a98969492919d9b999795939d610829565b835f5260205f20601f840160051c81019160208510610907575b601f0160051c01905b8181106108fc575061074a565b5f81556001016108ef565b90915081906108e6565b634e487b7160e01b5f52604160045260245ffd5b634e487b7160e01b5f52601160045260245ffd5b905060208a6084604051809481936331f91f9760e21b83526004830152336024830152600360448301526109718d6064840190611622565b5afa9081156102d2575f91610989575b50158a6104aa565b90506020813d6020116109bb575b816109a4602093836115f3565b810103126102c6576109b59061169b565b8a610981565b3d9150610997565b90506020813d6020116109f5575b816109de602093836115f3565b810103126102c6576109ef9061169b565b8b6104a1565b3d91506109d1565b61048e602060029361045f565b630fadd93d60e41b5f5260048a9052610a2288611614565b60445ffd5b610a449199503d805f833e610a3c81836115f3565b810190611a12565b978a610441565b63ae52a1c360e01b5f5260045ffd5b630fadd93d60e41b5f526004899052610a2287611614565b90506020813d602011610aa4575b81610a8d602093836115f3565b810103126102c657610a9e9061169b565b8a6103fd565b3d9150610a80565b346102c65760403660031901126102c657610ac561155d565b6001600160401b03610ad5611573565b91165f5260046020526001600160401b0360405f2091165f52602052602060405f2060018060a01b03905416604051908152f35b346102c6575f3660031901126102c6576040517f00000000000000000000000000000000000000000000000000000000000000006001600160a01b03168152602090f35b346102c65760603660031901126102c657610b6661155d565b610b6e611573565b610b76611589565b610b8082846118e5565b91610b8a83611af3565b9383549460ff8660c81c16610b9e81611c4e565b1561030d5750836080610bb2920151611f07565b15610d3c576040516357d309f360e01b81526001600160401b0391821660048201819052336024830152939091166044820181905294610c03906005606484015260ff608484019160801c16611622565b60208160a4817f00000000000000000000000000000000000000000000000000000000000000006001600160a01b03165afa9081156102d2575f91610d02575b5015610281576001600160401b031691825f52600360205260405f20845f5260205260ff60405f205416610ceb575f8381526003602090815260408083208784528252808320805460ff1916600117905585835260048252808320878452909152902080546001600160a01b03191633179055610cbf90611d63565b7f7177f85607ad96252d3fd16f3f12819c5f73a35174c3079235ca538648a3ca9f6020604051338152a4005b5050637dce03ed60e01b5f5260045260245260445ffd5b90506020813d602011610d34575b81610d1d602093836115f3565b810103126102c657610d2e9061169b565b85610c43565b3d9150610d10565b6001600160401b0383631117eec360e11b5f521660045260245ffd5b346102c65760403660031901126102c657610d7161155d565b610d79611573565b610d8381836118e5565b610d8c81611af3565b9060ff815460c81c1660098110156102dd576003810361030d575080610db3600592611d05565b0180546fffffffffffffffff000000000000000019164260401b67ffffffffffffffff60401b16178155906001600160401b0360c081845460401c1692015116016001600160401b03811161092557815467ffffffffffffffff60801b191660809190911b67ffffffffffffffff60801b161781557fefb39ee9de75fc8982342c1c2cbeef09c54531f14f199e7448e37765d4f0fa8f906040906001600160401b039081905494818451968181871c16885260801c16602087015216941692a3005b60603660031901126102c657610e8961155d565b610e91611573565b906044356001600160401b0381116102c657610eb190369060040161166e565b610ebd848493946118e5565b92610ec784611af3565b9284549360ff8560c81c166009811015806102dd57600382148015611241575b1561122e57610efa60608401518a611f47565b1561121257610f0d60808401518a611faa565b6111fe576001600160401b0360c0840151166111ac575b505060a001516040516357d309f360e01b81526001600160401b039283166004820181905233602483015291909216604483015293610f74906006606484015260ff608484019160801c16611622565b60208160a4817f00000000000000000000000000000000000000000000000000000000000000006001600160a01b03165afa9081156102d2575f91611172575b5015610281576002840180549092906001600160a01b03908116907f0000000000000000000000000000000000000000000000000000000000000000168103611160575061100336828461188b565b602081519101209460048101958654809103611138575060038101548034036111225750915f929161105a836110398695611ca3565b60050180546001600160c01b03164260c01b6001600160c01b031916179055565b60018060a01b03855416918160405192839283378101848152039134905af13d1561111a573d9061108a82611870565b9161109860405193846115f3565b82523d5f602084013e5b156110f1575060018060a01b03905416915460405192835260208301527f417824b2a428cfdfc49b3fd52b9d0f23a6648337d82af6ddb5d4fa8ac6df01b360406001600160401b0333951693a4005b6040516315fcd67560e01b81526020600482015290819061111690602483019061164a565b0390fd5b6060906110a2565b631c19358960e21b5f526004523460245260445ffd5b61114336848661188b565b6020815191012090636f205f0f60e11b5f5260045260245260445ffd5b63e356c1d360e01b5f5260045260245ffd5b90506020813d6020116111a4575b8161118d602093836115f3565b810103126102c65761119e9061169b565b86610fb4565b3d9150611180565b6102dd576004810361030d57506001600160401b03600587015460801c16806001600160401b034216106111e05780610f24565b6001600160401b03886281152960e61b5f521660045260245260445ffd5b63735671c760e11b5f52600560045260245ffd5b6001600160401b03896354bb858d60e01b5f521660045260245ffd5b63735671c760e11b5f526103208261162f565b50505f60048214610ee7565b346102c65760403660031901126102c65761127761126961155d565b611271611573565b906116a8565b005b346102c65760203660031901126102c6576001600160401b0361129a61155d565b165f52600160205260405f20805460018060a01b036001830154169160018060a01b03600282015416600382015460048301549160066005850154940195604051965f908054906112ea8261159f565b808b52916001811690811561141e57506001146113e0575b611374896113dc8c8b8b8b8b8b61131b868d03876115f3565b60405198886001600160401b038b9a168a526001600160401b038160401c1660208b015261135260408b0160ff8360801c16611622565b6001600160401b038160881c1660608b015260ff60808b019160c81c1661163d565b60a088015260c087015260e08601526101008501526001600160401b0381166101208501526001600160401b038160401c166101408501526001600160401b038160801c1661016085015260c01c6101808401526101c06101a08401526101c083019061164a565b0390f35b5f908152602081209092505b81831061140357505087016020018161131b611302565b6001818b6020868195979697549201015201910191906113ec565b60ff19166020808d019190915292151560051b8b01909201925083915061131b9050611302565b346102c6575f3660031901126102c65760206001600160401b035f5416604051908152f35b346102c65760403660031901126102c65761148361155d565b6001600160401b03611493611573565b91165f5260036020526001600160401b0360405f2091165f52602052602060ff60405f2054166040519015158152f35b346102c65760403660031901126102c6576114dc61155d565b6001600160401b036114ec611573565b91165f5260026020526001600160401b0360405f2091165f52602052602060ff60405f2054166040519015158152f35b346102c6575f3660031901126102c6577f00000000000000000000000000000000000000000000000000000000000000006001600160a01b03168152602090f35b600435906001600160401b03821682036102c657565b602435906001600160401b03821682036102c657565b604435906001600160401b03821682036102c657565b90600182811c921680156115cd575b60208310146115b957565b634e487b7160e01b5f52602260045260245ffd5b91607f16916115ae565b61010081019081106001600160401b0382111761091157604052565b90601f801991011681019081106001600160401b0382111761091157604052565b60058110156102dd57602452565b9060058210156102dd5752565b60098110156102dd57600452565b9060098210156102dd5752565b805180835260209291819084018484015e5f828201840152601f01601f1916010190565b9181601f840112156102c6578235916001600160401b0383116102c657602083818601950101116102c657565b519081151582036102c657565b6116b282826118e5565b6116bb81611af3565b60ff825460c81c166116cc81611c4e565b1561030d5750604051637fa4eaa560e01b81526001600160401b03841660048201523360248201526001600160a01b037f000000000000000000000000000000000000000000000000000000000000000016602082604481845afa9182156102d2575f92611834575b50816117bb575b506117b15760018201546001600160a01b031633148015919061179c575b506102815761176890611e1f565b6001600160401b038033931691167fd9ce7acd5b198c1d2d429a4b6665c40eea920f2c531707f2a787359a18180ae05f80a4565b6117ab91506060015184611ea5565b5f61175a565b5061176890611e1f565b604051620a7c3960e61b81526001600160401b03861660048201529150602090829060249082905afa9081156102d2575f916117fa575b50155f61173c565b90506020813d60201161182c575b81611815602093836115f3565b810103126102c6576118269061169b565b5f6117f2565b3d9150611808565b9091506020813d602011611868575b81611850602093836115f3565b810103126102c6576118619061169b565b905f611735565b3d9150611843565b6001600160401b03811161091157601f01601f191660200190565b92919261189782611870565b916118a560405193846115f3565b8294818452818301116102c6578281602093845f960137010152565b9060098110156102dd57815460ff60c81b191660c89190911b60ff60c81b16179055565b91906001600160401b0316805f52600160205260405f20928354906001600160401b0382161561193f576001600160401b039081169160401c1681900361192a575050565b631898659960e31b5f5260045260245260445ffd5b826359825a0160e01b5f5260045260245ffd5b6040519061195f826115d7565b5f60e083828152826020820152826040820152606080820152606060808201528260a08201528260c08201520152565b51906001600160401b03821682036102c657565b9080601f830112156102c6578151916001600160401b038311610911578260051b90604051936119d660208401866115f3565b84526020808501928201019283116102c657602001905b8282106119fa5750505090565b60208091611a078461198f565b8152019101906119ed565b6020818303126102c6578051906001600160401b0382116102c65701610100818303126102c65760405191611a46836115d7565b611a4f8261198f565b8352602082015160058110156102c6576020840152611a706040830161198f565b604084015260608201516001600160401b0381116102c65781611a949184016119a3565b60608401526080820151916001600160401b0383116102c657611abe60e092611aeb9483016119a3565b6080850152611acf60a0820161198f565b60a0850152611ae060c0820161198f565b60c08501520161169b565b60e082015290565b90611afc611952565b5060018060a01b037f00000000000000000000000000000000000000000000000000000000000000001691546001600160401b038160401c166040516328be254f60e21b8152816004820152602081602481885afa9081156102d2575f91611c14575b5015611bf8575f6001600160401b03606460ff8560801c16946040519788938492633accc9df60e21b8452876004850152611b9d602485018a611622565b60881c1660448301525afa9384156102d2575f94611bdc575b5060e084015115611bc5575050565b630fadd93d60e41b5f52600452610a229150611614565b611bf19194503d805f833e610a3c81836115f3565b925f611bb6565b630fadd93d60e41b5f52600452610a229060801c60ff16611614565b90506020813d602011611c46575b81611c2f602093836115f3565b810103126102c657611c409061169b565b5f611b5f565b3d9150611c22565b600981101590816102dd5760068114159182611c95575b82611c83575b82611c7557505090565b9091506102dd576008141590565b8092506102dd57600581141591611c6b565b50600781141591505f611c65565b60ff815460c81c169060098210156102dd5760068214611d0157611cc86006826118c1565b5490611cd7604051809261163d565b600660208201525f5160206120045f395f51905f5260406001600160401b0380851694821c1692a3565b5050565b60ff815460c81c169060098210156102dd5760048214611d0157611d2a6004826118c1565b5490611d39604051809261163d565b600460208201525f5160206120045f395f51905f5260406001600160401b0380851694821c1692a3565b60ff815460c81c169060098210156102dd5760058214611d0157611d886005826118c1565b5490611d97604051809261163d565b600560208201525f5160206120045f395f51905f5260406001600160401b0380851694821c1692a3565b60ff815460c81c169060098210156102dd5760038214611d0157611de66003826118c1565b5490611df5604051809261163d565b600360208201525f5160206120045f395f51905f5260406001600160401b0380851694821c1692a3565b60ff815460c81c169060098210156102dd5760078214611d0157611e446007826118c1565b5490611e53604051809261163d565b600760208201525f5160206120045f395f51905f5260406001600160401b0380851694821c1692a3565b8051821015611e915760209160051b010190565b634e487b7160e01b5f52603260045260245ffd5b908051915f5b838110611eba57505050505f90565b6001600160401b0382165f52600260205260405f206001600160401b0380611ee28487611e7d565b5116165f5260205260ff60405f205416611efe57600101611eab565b50505050600190565b908151915f5b838110611f1c57505050505f90565b6001600160401b03611f2e8284611e7d565b51166001600160401b03841614611efe57600101611f0d565b908051915f5b838110611f5d5750505050600190565b6001600160401b0382165f52600260205260405f206001600160401b0380611f858487611e7d565b5116165f5260205260ff60405f20541615611fa257600101611f4d565b505050505f90565b908051915f5b838110611fbf57505050505f90565b6001600160401b0382165f52600360205260405f206001600160401b0380611fe78487611e7d565b5116165f5260205260ff60405f205416611efe57600101611fb056fee5890f55c5bccc06364d2d6e1dbfcb9e149507f1fac3aa0c2fad35d1eeefa8d8a2646970667358221220826f29e120fbc851a6b7520d6734f42b9f3d48726bab8d2311d9da9690fa131f64736f6c634300081c0033",
  "linkReferences": {},
  "deployedLinkReferences": {},
  "immutableReferences": {
    "173": [
      {
        "length": 32,
        "start": 370
      },
      {
        "length": 32,
        "start": 956
      },
      {
        "length": 32,
        "start": 2846
      },
      {
        "length": 32,
        "start": 3083
      },
      {
        "length": 32,
        "start": 3964
      },
      {
        "length": 32,
        "start": 5886
      },
      {
        "length": 32,
        "start": 6918
      }
    ],
    "175": [
      {
        "length": 32,
        "start": 4049
      },
      {
        "length": 32,
        "start": 5422
      }
    ]
  },
  "inputSourceName": "project/contracts/GovProposals.sol",
  "buildInfoId": "solc-0_8_28-8e667e458e51cdc0ca38b56567b25d5d3164b4b3"
}