{
  "_format": "hh3-artifact-1",
  "contractName": "DemoTarget",
  "sourceName": "contracts/DemoTarget.sol",
  "abi": [
    {
      "inputs": [
        {
          "internalType": "address",
          "name": "ownerAddress",
          "type": "address"
        }
      ],
      "stateMutability": "nonpayable",
      "type": "constructor"
    },
    {
      "inputs": [
        {
          "internalType": "address",
          "name": "actor",
          "type": "address"
        }
      ],
      "name": "Unauthorized",
      "type": "error"
    },
    {
      "inputs": [],
      "name": "ZeroAddress",
      "type": "error"
    },
    {
      "anonymous": false,
      "inputs": [
        {
          "indexed": true,
          "internalType": "address",
          "name": "govProposalsAddress",
          "type": "address"
        }
      ],
      "name": "GovProposalsSet",
      "type": "event"
    },
    {
      "anonymous": false,
      "inputs": [
        {
          "indexed": true,
          "internalType": "uint64",
          "name": "orgId",
          "type": "uint64"
        },
        {
          "indexed": false,
          "internalType": "uint256",
          "name": "number",
          "type": "uint256"
        },
        {
          "indexed": false,
          "internalType": "uint256",
          "name": "value",
          "type": "uint256"
        }
      ],
      "name": "NumberSet",
      "type": "event"
    },
    {
      "inputs": [],
      "name": "govProposals",
      "outputs": [
        {
          "internalType": "address",
          "name": "",
          "type": "address"
        }
      ],
      "stateMutability": "view",
      "type": "function"
    },
    {
      "inputs": [],
      "name": "lastActionHash",
      "outputs": [
        {
          "internalType": "bytes32",
          "name": "",
          "type": "bytes32"
        }
      ],
      "stateMutability": "view",
      "type": "function"
    },
    {
      "inputs": [],
      "name": "lastOrgId",
      "outputs": [
        {
          "internalType": "uint64",
          "name": "",
          "type": "uint64"
        }
      ],
      "stateMutability": "view",
      "type": "function"
    },
    {
      "inputs": [],
      "name": "number",
      "outputs": [
        {
          "internalType": "uint256",
          "name": "",
          "type": "uint256"
        }
      ],
      "stateMutability": "view",
      "type": "function"
    },
    {
      "inputs": [],
      "name": "owner",
      "outputs": [
        {
          "internalType": "address",
          "name": "",
          "type": "address"
        }
      ],
      "stateMutability": "view",
      "type": "function"
    },
    {
      "inputs": [
        {
          "internalType": "address",
          "name": "govProposalsAddress",
          "type": "address"
        }
      ],
      "name": "setGovProposals",
      "outputs": [],
      "stateMutability": "nonpayable",
      "type": "function"
    },
    {
      "inputs": [
        {
          "internalType": "uint64",
          "name": "orgId",
          "type": "uint64"
        },
        {
          "internalType": "uint256",
          "name": "newNumber",
          "type": "uint256"
        }
      ],
      "name": "setNumber",
      "outputs": [],
      "stateMutability": "payable",
      "type": "function"
    }
  ],
  "bytecode": "0x60a034608057601f6103c038819003918201601f19168301916001600160401b03831184841017608457808492602094604052833981010312608057516001600160a01b038116808203608057156071576080526040516103279081610099823960805181818160a1015261022a0152f35b63d92e233d60e01b5f5260045ffd5b5f80fd5b634e487b7160e01b5f52604160045260245ffdfe6080806040526004361015610012575f80fd5b5f905f3560e01c90816343a3e3ec146102cb57508063573b842f146102a45780635ae14a65146102025780635bcecd74146100ee5780638381f58a146100d05780638da5cb5b1461008b5763d2be2f071461006b575f80fd5b346100885780600319360112610088576020600254604051908152f35b80fd5b50346100885780600319360112610088576040517f00000000000000000000000000000000000000000000000000000000000000006001600160a01b03168152602090f35b50346100885780600319360112610088576020600154604051908152f35b60403660031901126101fe5760043567ffffffffffffffff8116908181036101fe575f54602435916001600160a01b03821633036101eb5767ffffffffffffffff60a01b1990911660a09190911b67ffffffffffffffff60a01b16175f55600181905567ffffffffffffffff36116101d7576040519036601f01601f19908116603f011682019067ffffffffffffffff8211838310176101d7577fa621fd072c35884d2e4b49bb9c5543c16842f559b9da22ae7d0f90178736f4f29260409283523681526020810190365f83375f602036830101525190206002558151908152346020820152a2005b634e487b7160e01b5f52604160045260245ffd5b63472511eb60e11b5f523360045260245ffd5b5f80fd5b346101fe5760203660031901126101fe576004356001600160a01b038116908190036101fe577f00000000000000000000000000000000000000000000000000000000000000006001600160a01b031633036101eb578015610295575f80546001600160a01b031916821781557f9bf91b23eab15b7a3d905dbcc2a9f4dc0fd8c4a64461fb72fe3fc3caa2732d109080a2005b63d92e233d60e01b5f5260045ffd5b346101fe575f3660031901126101fe575f546040516001600160a01b039091168152602090f35b346101fe575f3660031901126101fe5760209067ffffffffffffffff5f5460a01c168152f3fea2646970667358221220c4bcd76e92b6a27844482ef632bda3cef6759a0764dfe8f2342a9b1a0357bab164736f6c634300081c0033",
  "linkReferences": {},
  "deployedLinkReferences": {},
  "immutableReferences": {
    "6": [
      {
        "length": 32,
        "start": 161
      },
      {
        "length": 32,
        "start": 554
      }
    ]
  },
  "inputSourceName": "project/contracts/DemoTarget.sol",
  "buildInfoId": "solc-0_8_28-bf7ced6653fc953ce1dfc66db1633defacdc865e"
}