{
  "_format": "hh3-artifact-1",
  "contractName": "GovCore",
  "sourceName": "contracts/GovCore.sol",
  "abi": [
    {
      "inputs": [
        {
          "internalType": "uint64",
          "name": "orgId",
          "type": "uint64"
        },
        {
          "internalType": "uint64",
          "name": "bodyId",
          "type": "uint64"
        }
      ],
      "name": "BodyDoesNotBelongToOrg",
      "type": "error"
    },
    {
      "inputs": [
        {
          "internalType": "uint64",
          "name": "bodyId",
          "type": "uint64"
        }
      ],
      "name": "BodyNotFound",
      "type": "error"
    },
    {
      "inputs": [],
      "name": "EmptySlug",
      "type": "error"
    },
    {
      "inputs": [],
      "name": "InvalidBodyKind",
      "type": "error"
    },
    {
      "inputs": [],
      "name": "InvalidExecutorBody",
      "type": "error"
    },
    {
      "inputs": [],
      "name": "InvalidMandateTimeRange",
      "type": "error"
    },
    {
      "inputs": [
        {
          "internalType": "enum GovTypes.OrganizationStatus",
          "name": "status",
          "type": "uint8"
        }
      ],
      "name": "InvalidOrganizationStatus",
      "type": "error"
    },
    {
      "inputs": [],
      "name": "InvalidProposalType",
      "type": "error"
    },
    {
      "inputs": [],
      "name": "InvalidRoleType",
      "type": "error"
    },
    {
      "inputs": [
        {
          "internalType": "enum GovTypes.OrganizationStatus",
          "name": "current",
          "type": "uint8"
        },
        {
          "internalType": "enum GovTypes.OrganizationStatus",
          "name": "nextStatus",
          "type": "uint8"
        }
      ],
      "name": "InvalidStatusTransition",
      "type": "error"
    },
    {
      "inputs": [
        {
          "internalType": "uint64",
          "name": "mandateId",
          "type": "uint64"
        }
      ],
      "name": "MandateNotFound",
      "type": "error"
    },
    {
      "inputs": [
        {
          "internalType": "uint64",
          "name": "orgId",
          "type": "uint64"
        }
      ],
      "name": "OrganizationNotActive",
      "type": "error"
    },
    {
      "inputs": [
        {
          "internalType": "uint64",
          "name": "orgId",
          "type": "uint64"
        }
      ],
      "name": "OrganizationNotFound",
      "type": "error"
    },
    {
      "inputs": [
        {
          "internalType": "uint64",
          "name": "orgId",
          "type": "uint64"
        },
        {
          "internalType": "uint64",
          "name": "roleId",
          "type": "uint64"
        }
      ],
      "name": "RoleDoesNotBelongToOrg",
      "type": "error"
    },
    {
      "inputs": [
        {
          "internalType": "uint64",
          "name": "roleId",
          "type": "uint64"
        }
      ],
      "name": "RoleNotFound",
      "type": "error"
    },
    {
      "inputs": [],
      "name": "SlugAlreadyExists",
      "type": "error"
    },
    {
      "inputs": [
        {
          "internalType": "address",
          "name": "actor",
          "type": "address"
        }
      ],
      "name": "Unauthorized",
      "type": "error"
    },
    {
      "inputs": [],
      "name": "ZeroAddress",
      "type": "error"
    },
    {
      "anonymous": false,
      "inputs": [
        {
          "indexed": true,
          "internalType": "uint64",
          "name": "orgId",
          "type": "uint64"
        },
        {
          "indexed": true,
          "internalType": "uint64",
          "name": "bodyId",
          "type": "uint64"
        },
        {
          "indexed": false,
          "internalType": "enum GovTypes.BodyKind",
          "name": "kind",
          "type": "uint8"
        },
        {
          "indexed": false,
          "internalType": "string",
          "name": "metadataURI",
          "type": "string"
        }
      ],
      "name": "BodyCreated",
      "type": "event"
    },
    {
      "anonymous": false,
      "inputs": [
        {
          "indexed": true,
          "internalType": "uint64",
          "name": "orgId",
          "type": "uint64"
        },
        {
          "indexed": true,
          "internalType": "uint64",
          "name": "bodyId",
          "type": "uint64"
        },
        {
          "indexed": false,
          "internalType": "bool",
          "name": "active",
          "type": "bool"
        },
        {
          "indexed": false,
          "internalType": "string",
          "name": "metadataURI",
          "type": "string"
        }
      ],
      "name": "BodyUpdated",
      "type": "event"
    },
    {
      "anonymous": false,
      "inputs": [
        {
          "indexed": true,
          "internalType": "uint64",
          "name": "orgId",
          "type": "uint64"
        },
        {
          "indexed": true,
          "internalType": "uint64",
          "name": "mandateId",
          "type": "uint64"
        },
        {
          "indexed": true,
          "internalType": "uint64",
          "name": "roleId",
          "type": "uint64"
        },
        {
          "indexed": false,
          "internalType": "uint64",
          "name": "bodyId",
          "type": "uint64"
        },
        {
          "indexed": false,
          "internalType": "address",
          "name": "holder",
          "type": "address"
        },
        {
          "indexed": false,
          "internalType": "uint64",
          "name": "startTime",
          "type": "uint64"
        },
        {
          "indexed": false,
          "internalType": "uint64",
          "name": "endTime",
          "type": "uint64"
        },
        {
          "indexed": false,
          "internalType": "uint256",
          "name": "proposalTypeMask",
          "type": "uint256"
        },
        {
          "indexed": false,
          "internalType": "uint128",
          "name": "spendingLimit",
          "type": "uint128"
        }
      ],
      "name": "MandateAssigned",
      "type": "event"
    },
    {
      "anonymous": false,
      "inputs": [
        {
          "indexed": true,
          "internalType": "uint64",
          "name": "orgId",
          "type": "uint64"
        },
        {
          "indexed": true,
          "internalType": "uint64",
          "name": "mandateId",
          "type": "uint64"
        },
        {
          "indexed": true,
          "internalType": "address",
          "name": "holder",
          "type": "address"
        }
      ],
      "name": "MandateRevoked",
      "type": "event"
    },
    {
      "anonymous": false,
      "inputs": [
        {
          "indexed": true,
          "internalType": "uint64",
          "name": "orgId",
          "type": "uint64"
        },
        {
          "indexed": false,
          "internalType": "string",
          "name": "slug",
          "type": "string"
        },
        {
          "indexed": true,
          "internalType": "address",
          "name": "admin",
          "type": "address"
        },
        {
          "indexed": false,
          "internalType": "string",
          "name": "metadataURI",
          "type": "string"
        }
      ],
      "name": "OrganizationCreated",
      "type": "event"
    },
    {
      "anonymous": false,
      "inputs": [
        {
          "indexed": true,
          "internalType": "uint64",
          "name": "orgId",
          "type": "uint64"
        },
        {
          "indexed": false,
          "internalType": "enum GovTypes.OrganizationStatus",
          "name": "status",
          "type": "uint8"
        }
      ],
      "name": "OrganizationStatusChanged",
      "type": "event"
    },
    {
      "anonymous": false,
      "inputs": [
        {
          "indexed": true,
          "internalType": "uint64",
          "name": "orgId",
          "type": "uint64"
        },
        {
          "indexed": false,
          "internalType": "string",
          "name": "metadataURI",
          "type": "string"
        }
      ],
      "name": "OrganizationUpdated",
      "type": "event"
    },
    {
      "anonymous": false,
      "inputs": [
        {
          "indexed": true,
          "internalType": "uint64",
          "name": "orgId",
          "type": "uint64"
        },
        {
          "indexed": true,
          "internalType": "enum GovTypes.ProposalType",
          "name": "proposalType",
          "type": "uint8"
        },
        {
          "indexed": false,
          "internalType": "uint64",
          "name": "version",
          "type": "uint64"
        },
        {
          "indexed": false,
          "internalType": "uint64[]",
          "name": "requiredApprovalBodies",
          "type": "uint64[]"
        },
        {
          "indexed": false,
          "internalType": "uint64[]",
          "name": "vetoBodies",
          "type": "uint64[]"
        },
        {
          "indexed": false,
          "internalType": "uint64",
          "name": "executorBody",
          "type": "uint64"
        },
        {
          "indexed": false,
          "internalType": "uint64",
          "name": "timelockSeconds",
          "type": "uint64"
        },
        {
          "indexed": false,
          "internalType": "bool",
          "name": "enabled",
          "type": "bool"
        }
      ],
      "name": "PolicyRuleSet",
      "type": "event"
    },
    {
      "anonymous": false,
      "inputs": [
        {
          "indexed": true,
          "internalType": "uint64",
          "name": "orgId",
          "type": "uint64"
        },
        {
          "indexed": true,
          "internalType": "uint64",
          "name": "roleId",
          "type": "uint64"
        },
        {
          "indexed": true,
          "internalType": "uint64",
          "name": "bodyId",
          "type": "uint64"
        },
        {
          "indexed": false,
          "internalType": "enum GovTypes.RoleType",
          "name": "roleType",
          "type": "uint8"
        },
        {
          "indexed": false,
          "internalType": "string",
          "name": "metadataURI",
          "type": "string"
        }
      ],
      "name": "RoleCreated",
      "type": "event"
    },
    {
      "anonymous": false,
      "inputs": [
        {
          "indexed": true,
          "internalType": "uint64",
          "name": "orgId",
          "type": "uint64"
        },
        {
          "indexed": true,
          "internalType": "uint64",
          "name": "roleId",
          "type": "uint64"
        },
        {
          "indexed": false,
          "internalType": "bool",
          "name": "active",
          "type": "bool"
        },
        {
          "indexed": false,
          "internalType": "string",
          "name": "metadataURI",
          "type": "string"
        }
      ],
      "name": "RoleUpdated",
      "type": "event"
    },
    {
      "inputs": [
        {
          "internalType": "uint64",
          "name": "orgId",
          "type": "uint64"
        },
        {
          "internalType": "uint64",
          "name": "roleId",
          "type": "uint64"
        },
        {
          "internalType": "address",
          "name": "holder",
          "type": "address"
        },
        {
          "internalType": "uint64",
          "name": "startTime",
          "type": "uint64"
        },
        {
          "internalType": "uint64",
          "name": "endTime",
          "type": "uint64"
        },
        {
          "internalType": "uint256",
          "name": "proposalTypeMask",
          "type": "uint256"
        },
        {
          "internalType": "uint128",
          "name": "spendingLimit",
          "type": "uint128"
        }
      ],
      "name": "assignMandate",
      "outputs": [
        {
          "internalType": "uint64",
          "name": "mandateId",
          "type": "uint64"
        }
      ],
      "stateMutability": "nonpayable",
      "type": "function"
    },
    {
      "inputs": [
        {
          "internalType": "uint64",
          "name": "",
          "type": "uint64"
        }
      ],
      "name": "bodies",
      "outputs": [
        {
          "internalType": "uint64",
          "name": "id",
          "type": "uint64"
        },
        {
          "internalType": "uint64",
          "name": "orgId",
          "type": "uint64"
        },
        {
          "internalType": "enum GovTypes.BodyKind",
          "name": "kind",
          "type": "uint8"
        },
        {
          "internalType": "bool",
          "name": "active",
          "type": "bool"
        },
        {
          "internalType": "uint64",
          "name": "createdAt",
          "type": "uint64"
        },
        {
          "internalType": "string",
          "name": "metadataURI",
          "type": "string"
        }
      ],
      "stateMutability": "view",
      "type": "function"
    },
    {
      "inputs": [
        {
          "internalType": "uint64",
          "name": "orgId",
          "type": "uint64"
        },
        {
          "internalType": "uint64",
          "name": "bodyId",
          "type": "uint64"
        }
      ],
      "name": "bodyBelongsToOrg",
      "outputs": [
        {
          "internalType": "bool",
          "name": "belongs",
          "type": "bool"
        }
      ],
      "stateMutability": "view",
      "type": "function"
    },
    {
      "inputs": [
        {
          "internalType": "uint64",
          "name": "orgId",
          "type": "uint64"
        },
        {
          "internalType": "address",
          "name": "actor",
          "type": "address"
        },
        {
          "internalType": "uint64",
          "name": "bodyId",
          "type": "uint64"
        },
        {
          "internalType": "enum GovTypes.RoleType",
          "name": "roleType",
          "type": "uint8"
        },
        {
          "internalType": "enum GovTypes.ProposalType",
          "name": "proposalType",
          "type": "uint8"
        }
      ],
      "name": "canActOnProposalType",
      "outputs": [
        {
          "internalType": "bool",
          "name": "canAct",
          "type": "bool"
        }
      ],
      "stateMutability": "view",
      "type": "function"
    },
    {
      "inputs": [
        {
          "internalType": "uint64",
          "name": "orgId",
          "type": "uint64"
        },
        {
          "internalType": "enum GovTypes.BodyKind",
          "name": "kind",
          "type": "uint8"
        },
        {
          "internalType": "string",
          "name": "metadataURI",
          "type": "string"
        }
      ],
      "name": "createBody",
      "outputs": [
        {
          "internalType": "uint64",
          "name": "bodyId",
          "type": "uint64"
        }
      ],
      "stateMutability": "nonpayable",
      "type": "function"
    },
    {
      "inputs": [
        {
          "internalType": "string",
          "name": "slug",
          "type": "string"
        },
        {
          "internalType": "string",
          "name": "metadataURI",
          "type": "string"
        },
        {
          "internalType": "address",
          "name": "admin",
          "type": "address"
        }
      ],
      "name": "createOrganization",
      "outputs": [
        {
          "internalType": "uint64",
          "name": "orgId",
          "type": "uint64"
        }
      ],
      "stateMutability": "nonpayable",
      "type": "function"
    },
    {
      "inputs": [
        {
          "internalType": "uint64",
          "name": "orgId",
          "type": "uint64"
        },
        {
          "internalType": "uint64",
          "name": "bodyId",
          "type": "uint64"
        },
        {
          "internalType": "enum GovTypes.RoleType",
          "name": "roleType",
          "type": "uint8"
        },
        {
          "internalType": "string",
          "name": "metadataURI",
          "type": "string"
        }
      ],
      "name": "createRole",
      "outputs": [
        {
          "internalType": "uint64",
          "name": "roleId",
          "type": "uint64"
        }
      ],
      "stateMutability": "nonpayable",
      "type": "function"
    },
    {
      "inputs": [
        {
          "internalType": "uint64",
          "name": "orgId",
          "type": "uint64"
        },
        {
          "internalType": "enum GovTypes.ProposalType",
          "name": "proposalType",
          "type": "uint8"
        }
      ],
      "name": "getPolicyRule",
      "outputs": [
        {
          "components": [
            {
              "internalType": "uint64",
              "name": "orgId",
              "type": "uint64"
            },
            {
              "internalType": "enum GovTypes.ProposalType",
              "name": "proposalType",
              "type": "uint8"
            },
            {
              "internalType": "uint64",
              "name": "version",
              "type": "uint64"
            },
            {
              "internalType": "uint64[]",
              "name": "requiredApprovalBodies",
              "type": "uint64[]"
            },
            {
              "internalType": "uint64[]",
              "name": "vetoBodies",
              "type": "uint64[]"
            },
            {
              "internalType": "uint64",
              "name": "executorBody",
              "type": "uint64"
            },
            {
              "internalType": "uint64",
              "name": "timelockSeconds",
              "type": "uint64"
            },
            {
              "internalType": "bool",
              "name": "enabled",
              "type": "bool"
            }
          ],
          "internalType": "struct GovTypes.PolicyRule",
          "name": "rule",
          "type": "tuple"
        }
      ],
      "stateMutability": "view",
      "type": "function"
    },
    {
      "inputs": [
        {
          "internalType": "uint64",
          "name": "orgId",
          "type": "uint64"
        },
        {
          "internalType": "enum GovTypes.ProposalType",
          "name": "proposalType",
          "type": "uint8"
        },
        {
          "internalType": "uint64",
          "name": "version",
          "type": "uint64"
        }
      ],
      "name": "getPolicyRuleAtVersion",
      "outputs": [
        {
          "components": [
            {
              "internalType": "uint64",
              "name": "orgId",
              "type": "uint64"
            },
            {
              "internalType": "enum GovTypes.ProposalType",
              "name": "proposalType",
              "type": "uint8"
            },
            {
              "internalType": "uint64",
              "name": "version",
              "type": "uint64"
            },
            {
              "internalType": "uint64[]",
              "name": "requiredApprovalBodies",
              "type": "uint64[]"
            },
            {
              "internalType": "uint64[]",
              "name": "vetoBodies",
              "type": "uint64[]"
            },
            {
              "internalType": "uint64",
              "name": "executorBody",
              "type": "uint64"
            },
            {
              "internalType": "uint64",
              "name": "timelockSeconds",
              "type": "uint64"
            },
            {
              "internalType": "bool",
              "name": "enabled",
              "type": "bool"
            }
          ],
          "internalType": "struct GovTypes.PolicyRule",
          "name": "rule",
          "type": "tuple"
        }
      ],
      "stateMutability": "view",
      "type": "function"
    },
    {
      "inputs": [
        {
          "internalType": "uint64",
          "name": "orgId",
          "type": "uint64"
        },
        {
          "internalType": "address",
          "name": "actor",
          "type": "address"
        },
        {
          "internalType": "enum GovTypes.RoleType",
          "name": "roleType",
          "type": "uint8"
        },
        {
          "internalType": "enum GovTypes.ProposalType",
          "name": "proposalType",
          "type": "uint8"
        }
      ],
      "name": "hasRole",
      "outputs": [
        {
          "internalType": "bool",
          "name": "hasMatchingRole",
          "type": "bool"
        }
      ],
      "stateMutability": "view",
      "type": "function"
    },
    {
      "inputs": [
        {
          "internalType": "uint64",
          "name": "orgId",
          "type": "uint64"
        },
        {
          "internalType": "address",
          "name": "actor",
          "type": "address"
        },
        {
          "internalType": "uint64",
          "name": "bodyId",
          "type": "uint64"
        }
      ],
      "name": "isBodyMember",
      "outputs": [
        {
          "internalType": "bool",
          "name": "isMember",
          "type": "bool"
        }
      ],
      "stateMutability": "view",
      "type": "function"
    },
    {
      "inputs": [
        {
          "internalType": "uint64",
          "name": "orgId",
          "type": "uint64"
        }
      ],
      "name": "isOrganizationActive",
      "outputs": [
        {
          "internalType": "bool",
          "name": "isActive",
          "type": "bool"
        }
      ],
      "stateMutability": "view",
      "type": "function"
    },
    {
      "inputs": [
        {
          "internalType": "uint64",
          "name": "orgId",
          "type": "uint64"
        },
        {
          "internalType": "address",
          "name": "actor",
          "type": "address"
        }
      ],
      "name": "isOrganizationAdmin",
      "outputs": [
        {
          "internalType": "bool",
          "name": "isAdmin",
          "type": "bool"
        }
      ],
      "stateMutability": "view",
      "type": "function"
    },
    {
      "inputs": [
        {
          "internalType": "uint64",
          "name": "",
          "type": "uint64"
        }
      ],
      "name": "mandates",
      "outputs": [
        {
          "internalType": "uint64",
          "name": "id",
          "type": "uint64"
        },
        {
          "internalType": "uint64",
          "name": "orgId",
          "type": "uint64"
        },
        {
          "internalType": "uint64",
          "name": "bodyId",
          "type": "uint64"
        },
        {
          "internalType": "uint64",
          "name": "roleId",
          "type": "uint64"
        },
        {
          "internalType": "address",
          "name": "holder",
          "type": "address"
        },
        {
          "internalType": "uint64",
          "name": "startTime",
          "type": "uint64"
        },
        {
          "internalType": "uint64",
          "name": "endTime",
          "type": "uint64"
        },
        {
          "internalType": "uint256",
          "name": "proposalTypeMask",
          "type": "uint256"
        },
        {
          "internalType": "uint128",
          "name": "spendingLimit",
          "type": "uint128"
        },
        {
          "internalType": "bool",
          "name": "active",
          "type": "bool"
        },
        {
          "internalType": "bool",
          "name": "revoked",
          "type": "bool"
        }
      ],
      "stateMutability": "view",
      "type": "function"
    },
    {
      "inputs": [],
      "name": "nextBodyId",
      "outputs": [
        {
          "internalType": "uint64",
          "name": "",
          "type": "uint64"
        }
      ],
      "stateMutability": "view",
      "type": "function"
    },
    {
      "inputs": [],
      "name": "nextMandateId",
      "outputs": [
        {
          "internalType": "uint64",
          "name": "",
          "type": "uint64"
        }
      ],
      "stateMutability": "view",
      "type": "function"
    },
    {
      "inputs": [],
      "name": "nextOrgId",
      "outputs": [
        {
          "internalType": "uint64",
          "name": "",
          "type": "uint64"
        }
      ],
      "stateMutability": "view",
      "type": "function"
    },
    {
      "inputs": [],
      "name": "nextRoleId",
      "outputs": [
        {
          "internalType": "uint64",
          "name": "",
          "type": "uint64"
        }
      ],
      "stateMutability": "view",
      "type": "function"
    },
    {
      "inputs": [
        {
          "internalType": "uint64",
          "name": "",
          "type": "uint64"
        }
      ],
      "name": "organizations",
      "outputs": [
        {
          "internalType": "uint64",
          "name": "id",
          "type": "uint64"
        },
        {
          "internalType": "address",
          "name": "admin",
          "type": "address"
        },
        {
          "internalType": "enum GovTypes.OrganizationStatus",
          "name": "status",
          "type": "uint8"
        },
        {
          "internalType": "uint64",
          "name": "createdAt",
          "type": "uint64"
        },
        {
          "internalType": "string",
          "name": "slug",
          "type": "string"
        },
        {
          "internalType": "string",
          "name": "metadataURI",
          "type": "string"
        }
      ],
      "stateMutability": "view",
      "type": "function"
    },
    {
      "inputs": [
        {
          "internalType": "uint64",
          "name": "",
          "type": "uint64"
        },
        {
          "internalType": "enum GovTypes.ProposalType",
          "name": "",
          "type": "uint8"
        }
      ],
      "name": "policyVersion",
      "outputs": [
        {
          "internalType": "uint64",
          "name": "",
          "type": "uint64"
        }
      ],
      "stateMutability": "view",
      "type": "function"
    },
    {
      "inputs": [
        {
          "internalType": "enum GovTypes.ProposalType",
          "name": "proposalType",
          "type": "uint8"
        }
      ],
      "name": "proposalTypeBit",
      "outputs": [
        {
          "internalType": "uint256",
          "name": "bit",
          "type": "uint256"
        }
      ],
      "stateMutability": "pure",
      "type": "function"
    },
    {
      "inputs": [
        {
          "internalType": "uint64",
          "name": "orgId",
          "type": "uint64"
        },
        {
          "internalType": "uint64",
          "name": "mandateId",
          "type": "uint64"
        }
      ],
      "name": "revokeMandate",
      "outputs": [],
      "stateMutability": "nonpayable",
      "type": "function"
    },
    {
      "inputs": [
        {
          "internalType": "uint64",
          "name": "",
          "type": "uint64"
        }
      ],
      "name": "roles",
      "outputs": [
        {
          "internalType": "uint64",
          "name": "id",
          "type": "uint64"
        },
        {
          "internalType": "uint64",
          "name": "orgId",
          "type": "uint64"
        },
        {
          "internalType": "uint64",
          "name": "bodyId",
          "type": "uint64"
        },
        {
          "internalType": "enum GovTypes.RoleType",
          "name": "roleType",
          "type": "uint8"
        },
        {
          "internalType": "bool",
          "name": "active",
          "type": "bool"
        },
        {
          "internalType": "string",
          "name": "metadataURI",
          "type": "string"
        }
      ],
      "stateMutability": "view",
      "type": "function"
    },
    {
      "inputs": [
        {
          "internalType": "uint64",
          "name": "orgId",
          "type": "uint64"
        },
        {
          "internalType": "enum GovTypes.OrganizationStatus",
          "name": "status",
          "type": "uint8"
        }
      ],
      "name": "setOrganizationStatus",
      "outputs": [],
      "stateMutability": "nonpayable",
      "type": "function"
    },
    {
      "inputs": [
        {
          "internalType": "uint64",
          "name": "orgId",
          "type": "uint64"
        },
        {
          "internalType": "enum GovTypes.ProposalType",
          "name": "proposalType",
          "type": "uint8"
        },
        {
          "internalType": "uint64[]",
          "name": "requiredApprovalBodies",
          "type": "uint64[]"
        },
        {
          "internalType": "uint64[]",
          "name": "vetoBodies",
          "type": "uint64[]"
        },
        {
          "internalType": "uint64",
          "name": "executorBody",
          "type": "uint64"
        },
        {
          "internalType": "uint64",
          "name": "timelockSeconds",
          "type": "uint64"
        },
        {
          "internalType": "bool",
          "name": "enabled",
          "type": "bool"
        }
      ],
      "name": "setPolicyRule",
      "outputs": [],
      "stateMutability": "nonpayable",
      "type": "function"
    },
    {
      "inputs": [
        {
          "internalType": "bytes32",
          "name": "",
          "type": "bytes32"
        }
      ],
      "name": "slugExists",
      "outputs": [
        {
          "internalType": "bool",
          "name": "",
          "type": "bool"
        }
      ],
      "stateMutability": "view",
      "type": "function"
    },
    {
      "inputs": [
        {
          "internalType": "uint64",
          "name": "orgId",
          "type": "uint64"
        },
        {
          "internalType": "uint64",
          "name": "bodyId",
          "type": "uint64"
        },
        {
          "internalType": "bool",
          "name": "active",
          "type": "bool"
        },
        {
          "internalType": "string",
          "name": "metadataURI",
          "type": "string"
        }
      ],
      "name": "updateBody",
      "outputs": [],
      "stateMutability": "nonpayable",
      "type": "function"
    },
    {
      "inputs": [
        {
          "internalType": "uint64",
          "name": "orgId",
          "type": "uint64"
        },
        {
          "internalType": "string",
          "name": "metadataURI",
          "type": "string"
        }
      ],
      "name": "updateOrganizationMetadata",
      "outputs": [],
      "stateMutability": "nonpayable",
      "type": "function"
    },
    {
      "inputs": [
        {
          "internalType": "uint64",
          "name": "orgId",
          "type": "uint64"
        },
        {
          "internalType": "uint64",
          "name": "roleId",
          "type": "uint64"
        },
        {
          "internalType": "bool",
          "name": "active",
          "type": "bool"
        },
        {
          "internalType": "string",
          "name": "metadataURI",
          "type": "string"
        }
      ],
      "name": "updateRole",
      "outputs": [],
      "stateMutability": "nonpayable",
      "type": "function"
    }
  ],
  "bytecode": "0x6080806040523460315778010000000000000001000000000000000100000000000000015f55612e2590816100368239f35b5f80fdfe60806040526004361015610011575f80fd5b5f3560e01c8062ba72b614611a7057806317117525146119d657806317cd54f2146119b757806319846f5a146118e7578063241f9bcd146115c057806330c1d363146113325780634407d1ed146112fb5780634b31b15a146112cc57806357d309f31461127d57806361f3e5e01461114b57806365d0945a1461110b57806369d0a3cf1461101d5780636a695f7114610f2d578063778b37d114610da75780637b538a9614610d385780637fa4eaa514610cc55780638a5f067c14610ca0578063a057d79d14610c78578063a2f8953c14610bfb578063bf4c48e214610a7e578063c7e47e5c14610a37578063d30c24671461098f578063d92b0f01146108d7578063da131b951461057a578063e9ca078f1461054a578063eb33277c146104cf578063f205be4c146101c1578063fc04f4ba146101995763ffce42ac14610157575f80fd5b3461019557606036600319011261019557602061018b610175611ea2565b61017d611e8c565b610185611ee4565b9161248e565b6040519015158152f35b5f80fd5b34610195575f3660031901126101955760206001600160401b035f5460801c16604051908152f35b34610195576060366003190112610195576101da611ea2565b6024356008811015610195576044356001600160401b03811161019557610205903690600401611e49565b919061021084612514565b5061021a8261200e565b81156104c0575f54916001600160401b038360401c169267ffffffffffffffff60401b6102468561220d565b60401b169067ffffffffffffffff60401b1916175f556040519161026983611f32565b83835260016001600160401b03602085019716938488526040810161028d8561200e565b84815261032b6060830184815260808401926001600160401b03421684526102ec6001600160401b036102c28d36908b61223f565b9d60a088019e8f528c5f526003602052818060405f20995116168219895416178855511686612321565b516102f68161200e565b6102ff8161200e565b8454915161ffff60801b1990921660809190911b60ff60801b161790151560881b60ff60881b16178355565b518154906001600160401b0360901b9060901b16906001600160401b0360901b19161781550195519586516001600160401b0381116104ac5760209761037b826103758554611efa565b856122be565b8890601f831160011461042157926103d38361040b948a9b97947f20d0dae1a37853ee41e7ff7189327cd00ce42d7f67a19098d79a80d61e5cf3d699975f92610416575b50508160011b915f199060031b1c19161790565b90555b855f52600989526103ea8760405f2061237e565b60405193836103f9869561200e565b845260408a8501526040840191612301565b0390a3604051908152f35b015190508d806103bf565b90601f19831691845f52815f20925f5b818110610495575093899a96937f20d0dae1a37853ee41e7ff7189327cd00ce42d7f67a19098d79a80d61e5cf3d69896936001938361040b981061047d575b505050811b0190556103d6565b01515f1960f88460031b161c191690558c8080610470565b92938c600181928786015181550195019301610431565b634e487b7160e01b5f52604160045260245ffd5b6320a6ce3160e21b5f5260045ffd5b34610195576060366003190112610195576104e8611ea2565b6024356005811015610195576105246001600160401b039182610509611ee4565b94610512612427565b50165f52600760205260405f2061209b565b91165f5260205261054661053a60405f2061283a565b60405191829182612151565b0390f35b3461019557602036600319011261019557600435600581101561019557610572602091612475565b604051908152f35b346101955760e036600319011261019557610593611ea2565b61059b611eb8565b6105a3611e76565b91606435926001600160401b038416809403610195576105c1611ece565b60a43560c435906001600160801b038216809203610195576105e285612514565b506106036001600160401b036105f888886128d1565b5460801c168661255d565b936001600160a01b03169283156108c8576001600160401b0316801515806108be575b6108af575f5460c081901c98906001600160c01b03196106458b61220d565b60c01b169060018060c01b0316175f556001600160401b038654169560405161016081018181106001600160401b038211176104ac578b9987928b9260405282815260208101916001600160401b03169a8b835260408201908152606082019d6001600160401b03169d8e8152608083018c815260a0840189815260c08501928b845260e08601948d86526101008701998a52610120870197600189526101408801995f8b525f52600560205260405f2097516001600160401b03166001600160401b03166001600160401b0319895416178855516001600160401b031661072d9088612321565b51865467ffffffffffffffff60801b191660809190911b67ffffffffffffffff60801b161786555185546001600160c01b031660c09190911b6001600160c01b031916178555905160018501805492516001600160e01b03199093166001600160a01b03929092169190911760a09290921b67ffffffffffffffff60a01b169190911790555160028301805467ffffffffffffffff19166001600160401b0392909216919091179055516003820155925160049093018054915170ffffffffffffffffffffffffffffffffff199092166001600160801b039094169390931790151560801b60ff60801b1617825551815460ff60881b191690151560881b60ff60881b16179055855f52600b60205260405f20875f526020528760405f20906108559161237e565b546001600160401b031694604051958652602086015260408501526060840152608083015260a082015260c07ff85e9ccebe6eca4444900c78625170174269a542746a3379d46c3690d4fb2ad391a4604051908152602090f35b6370aca5ed60e01b5f5260045ffd5b5087811115610626565b63d92e233d60e01b5f5260045ffd5b34610195576020366003190112610195576001600160401b036108f8611ea2565b165f52600160205261096b60405f206105468154916109816001600160401b0360018301541691610937600361093060028401611f6e565b9201611f6e565b9260405196866001600160401b03899816885260018060a01b038160401c16602089015260ff604089019160e01c16612200565b606086015260c0608086015260c0850190612018565b9083820360a0850152612018565b34610195576020366003190112610195576001600160401b036109b0611ea2565b165f52600460205260405f208054906105466109d5600160ff8560c01c169301611f6e565b60ff6040519485946001600160401b03821686526001600160401b038260401c1660208701526001600160401b038260801c166040870152610a168161200e565b606086015260c81c161515608084015260c060a084015260c0830190612018565b3461019557608036600319011261019557610a50611ea2565b610a58611e8c565b906044356008811015610195576064359060058210156101955760209361018b9361293e565b3461019557610a8c366120b1565b906001610a9b869594956127e9565b610aae610aa886896128d1565b91612825565b805460ff60c81b191686151560c81b60ff60c81b16178155016001600160401b0383116104ac57610ae983610ae38354611efa565b836122be565b5f601f8411600114610b6957927fca22a594bf2ebdd8f497da62080dd2abeb990051cc49069fc0aebf72917332889492610b5992610b4583806001600160401b03985f91610b5e575b508160011b915f199060031b1c19161790565b90555b84604051958695169816968461240b565b0390a3005b90508401358c610b32565b601f19841690825f5260205f20915f5b818110610be357509285927fca22a594bf2ebdd8f497da62080dd2abeb990051cc49069fc0aebf72917332889795926001600160401b0397610b599610610bca575b5050600183811b019055610b48565b8301355f19600386901b60f8161c191690558980610bbb565b91926020600181928689013581550194019201610b79565b34610195576020366003190112610195576001600160401b03610c1c611ea2565b165f52600160205260405f20546001600160401b03811615159081610c49575b6020826040519015158152f35b60ff915060e01c166004811015610c64576001146020610c3c565b634e487b7160e01b5f52602160045260245ffd5b34610195575f3660031901126101955760206001600160401b035f5460401c16604051908152f35b34610195575f3660031901126101955760206001600160401b035f5416604051908152f35b34610195576040366003190112610195576020610ce0611ea2565b6001600160401b03610cf0611e8c565b91165f526001825260405f20546001600160401b03811615159182610d1c575b50506040519015158152f35b6001600160a01b0390811660409290921c161490508280610d10565b34610195576040366003190112610195576020610d53611ea2565b6001600160401b03610d63611eb8565b165f526003825260405f20546001600160401b03811615159182610d8d5750506040519015158152f35b6001600160401b0391925081169160401c16148280610d10565b3461019557604036600319011261019557610dc0611ea2565b6024356001600160401b03811161019557610ddf903690600401611e49565b91906003610dec836127e9565b610df581612825565b016001600160401b0384116104ac57610e1284610ae38354611efa565b835f601f8211600114610e9657927f7595b560e88ecff40ceddbbf6327a7826c5bee41097decfe57fcac29dc0094ea9492610e6d83610e86946001600160401b03975f91610e8b57508160011b915f199060031b1c19161790565b90555b6040519384936020855216956020840191612301565b0390a2005b90508401358a610b32565b5f8381526020812092508690601f198216905b818110610f125750926001600160401b0395927f7595b560e88ecff40ceddbbf6327a7826c5bee41097decfe57fcac29dc0094ea979592610e869510610ef9575b5050600187811b019055610e70565b8301355f1960038a901b60f8161c191690558780610eea565b86840135855560019094019360209384019389935001610ea9565b3461019557604036600319011261019557610f46611ea2565b6024359060048210801561019557610f5d826127e9565b610f6681612825565b60ff815460e01c16918415611005576004831015610c645782600386941480610ffa575b610fd757837f90915732bce0c9088e484df76838b4ce0fae59d8171125d1f53a5d01479dbc6560206001600160401b0388610fc58589612284565b610fd26040518096612200565b1692a2005b63e3962ba360e01b5f52909150610fed906121f2565b15610c645760245260445ffd5b506003841415610f8a565b639553ff8360e01b5f52611018856121f2565b60245ffd5b3461019557604036600319011261019557611036611ea2565b61103e611eb8565b6001600160401b0361104f836127e9565b911690815f52600560205260405f209081546001600160401b038116156110f8576001600160401b0380951694859160401c16036110e55761109090612825565b60048101805460ff8160881c166110e55761ffff60801b1916600160881b179055600101546001600160a01b0316917fc4a0b3e021ff9eadcdf7660842998963f371b1b3b386fbff6bd2cfb9c802b4365f80a4005b63472511eb60e11b5f523360045260245ffd5b83631d5066e160e21b5f5260045260245ffd5b346101955761054661053a6111466001600160401b0361112a3661206c565b9190611134612427565b50165f52600660205260405f2061209b565b61283a565b3461019557611159366120b1565b906001611168869594956127e9565b611175610aa8868961255d565b805460ff60881b191686151560881b60ff60881b16178155016001600160401b0383116104ac576111aa83610ae38354611efa565b5f601f841160011461120557927f716d277eadc7a1039b5adc79065e53270b6785886f07af360e66411316a185b39492610b5992610b4583806001600160401b03985f91610b5e57508160011b915f199060031b1c19161790565b601f19841690825f5260205f20915f5b81811061126557509285927f716d277eadc7a1039b5adc79065e53270b6785886f07af360e66411316a185b39795926001600160401b0397610b599610610bca575050600183811b019055610b48565b91926020600181928689013581550194019201611215565b346101955760a036600319011261019557611296611ea2565b61129e611e8c565b906112a7611ee4565b6064356008811015610195576084359160058310156101955760209461018b94612759565b34610195576020366003190112610195576004355f526002602052602060ff60405f2054166040519015158152f35b346101955760206001600160401b03611328816113173661206c565b91165f526008845260405f2061209b565b5416604051908152f35b346101955760e03660031901126101955761134b611ea2565b60056024351015610195576044356001600160401b0381116101955761137590369060040161203c565b906064356001600160401b0381116101955761139590369060040161203c565b6113a0939193611ece565b9360a435916001600160401b03831683036101955760c43580159485158203610195576113cc89612514565b50602435156115b1578887926113e38385846125ee565b806113ef8688856125ee565b6115a2575b8780611590575b611581575b6001600160401b0382165f526008602052868a86888660243560405f20906114279161209b565b546001600160401b031661143a9061220d565b9d8e6001600160401b0389165f52600860205260243560405f209061145e9161209b565b6001600160401b0382166001600160401b03198254161790556001600160401b0389165f52600660205288888888888888888860243560243560405f20906114a59161209b565b996114af9a612677565b6001600160401b0389165f52600760205260243560405f20906114d19161209b565b6001600160401b0382165f5260205260405f2098602435906114f29a612677565b604051966001600160401b031687526020870160c0905260c0870190611517926123be565b908582036040870152611529926123be565b936001600160401b031660608401526001600160401b031660808301521560a082015280602435936001600160401b031692037fe02c2f4947fff798893010a369386de7b89638fe5560b872a9a06f2c767d6e9591a3005b61158b8a83612625565b611400565b506001600160401b038a1615156113fb565b6115ac8a83612625565b6113f4565b63ae52a1c360e01b5f5260045ffd5b34610195576080366003190112610195576115d9611ea2565b6115e1611eb8565b604435906008821015610195576064356001600160401b0381116101955761160d903690600401611e49565b9261161785612514565b50611622838661255d565b5061162c8161200e565b80156118d8575f546001600160401b03608082901c16949067ffffffffffffffff60801b6116598761220d565b60801b16906001600160401b0360801b1916175f556040519161167b83611f32565b85835260208301966001600160401b03169283885260408101956001600160401b031695868152606082016116af8461200e565b838152608083019160018352366116c790878a61223f565b9a60a085019b8c528a5f52600460205260405f2094516001600160401b03166001600160401b03166001600160401b0319865416178555516001600160401b03166117129085612321565b51835467ffffffffffffffff60801b191660809190911b67ffffffffffffffff60801b16178355516117438161200e565b61174c8161200e565b8254915161ffff60c01b1990921660c09190911b60ff60c01b161790151560c81b60ff60c81b161781556001019651938451976001600160401b0389116104ac578888966117a060209b6103758554611efa565b8a90601f831160011461184457827fec309e5fd11167ae0ac5665345f9713111c696d6ddde565455e5e64c936e3e7a9796959361182e95936117f6935f926118395750508160011b915f199060031b1c19161790565b90555b875f52600a8a5261180d8760405f2061237e565b604051938361181c869561200e565b845260408b8501526040840191612301565b0390a4604051908152f35b015190508e806103bf565b9796959493929190601f19821698835f52815f20995f5b8181106118be575099600192849261182e9796957fec309e5fd11167ae0ac5665345f9713111c696d6ddde565455e5e64c936e3e7a9b9c9d106118a6575b505050811b0190556117f9565b01515f1960f88460031b161c191690558d8080611899565b838301518c556001909b019a8d9a50928e01928e0161185b565b6337578e0360e11b5f5260045ffd5b34610195576020366003190112610195576001600160401b03611908611ea2565b165f52600560205261016060405f2060ff8154916001810154906001600160401b036002820154166001600160401b036004600384015493015493604051968281168852828160401c166020890152828160801c16604089015260c01c606088015260018060a01b038116608088015260a01c1660a086015260c085015260e08401526001600160801b038116610100840152818160801c16151561012084015260881c161515610140820152f35b34610195575f3660031901126101955760205f5460c01c604051908152f35b34610195576020366003190112610195576001600160401b036119f7611ea2565b165f52600360205260405f20805490610546611a1c600160ff8560801c169301611f6e565b6001600160401b036040519485948282168652828260401c166020870152611a438161200e565b604086015260ff8160881c161515606086015260901c16608084015260c060a084015260c0830190612018565b34610195576060366003190112610195576004356001600160401b03811161019557611aa0903690600401611e49565b6024356001600160401b03811161019557611abf903690600401611e49565b611aca939193611e76565b611ad536858561223f565b8051602091909101206001600160a01b039091169283156108c8578415611e3a57815f52600260205260ff60405f205416611e2b575f54946001600160401b038616956001600160401b03611b298861220d565b16906001600160401b031916175f5560405196611b4588611f32565b86885260208801978689526040810160018152606082016001600160401b0342168152611b7336868861223f565b9160808401928352611b86368a8761223f565b60a085019081525f8c81526001602052604090819020955186549e516001600160e01b0319909f166001600160401b0391909116179d901b68010000000000000000600160e01b03169c909c17845551906004821015610c6457611bf26001600160401b039285612284565b51166001600160401b036001840191166001600160401b03198254161790556002820190518051906001600160401b0382116104ac57611c36826103758554611efa565b602090601f8311600114611dc5579180611c699260039695945f926118395750508160011b915f199060031b1c19161790565b90555b019751938451986001600160401b038a116104ac57898996611c9460209c6103758554611efa565b8b90601f8311600114611d32578261040b9695937f5f4e9d71da1ffcff5c52f60fa8d40a0da551bf772253d9f9297420a992b9fe399a9b9593611ceb935f92611d275750508160011b915f199060031b1c19161790565b90555b5f5260028a5260405f20600160ff19825416179055611d1a604051958695604087526040870191612301565b918483038b860152612301565b015190508f806103bf565b601f99949392919919821690835f528a5f20915f5b818110611dab5750917f5f4e9d71da1ffcff5c52f60fa8d40a0da551bf772253d9f9297420a992b9fe399a9b849261040b999897969560019510611d93575b505050811b019055611cee565b01515f1960f88460031b161c191690558e8080611d86565b828d015184559b8f019b8e9b506001909301928f01611d47565b90601f19831691845f52815f20925f5b818110611e13575091600193918560039897969410611dfc575b505050811b019055611c6c565b01515f1983881b60f8161c191690558d8080611def565b92936020600181928786015181550195019301611dd5565b6306ba232760e41b5f5260045ffd5b6319a95ceb60e01b5f5260045ffd5b9181601f84011215610195578235916001600160401b038311610195576020838186019501011161019557565b604435906001600160a01b038216820361019557565b602435906001600160a01b038216820361019557565b600435906001600160401b038216820361019557565b602435906001600160401b038216820361019557565b608435906001600160401b038216820361019557565b604435906001600160401b038216820361019557565b90600182811c92168015611f28575b6020831014611f1457565b634e487b7160e01b5f52602260045260245ffd5b91607f1691611f09565b60c081019081106001600160401b038211176104ac57604052565b90601f801991011681019081106001600160401b038211176104ac57604052565b9060405191825f825492611f8184611efa565b8084529360018116908115611fec5750600114611fa8575b50611fa692500383611f4d565b565b90505f9291925260205f20905f915b818310611fd0575050906020611fa6928201015f611f99565b6020919350806001915483858901015201910190918492611fb7565b905060209250611fa694915060ff191682840152151560051b8201015f611f99565b60081115610c6457565b805180835260209291819084018484015e5f828201840152601f01601f1916010190565b9181601f84011215610195578235916001600160401b038311610195576020808501948460051b01011161019557565b6040906003190112610195576004356001600160401b0381168103610195579060243560058110156101955790565b906005811015610c64575f5260205260405f2090565b906080600319830112610195576004356001600160401b038116810361019557916024356001600160401b0381168103610195579160443580151581036101955791606435906001600160401b0382116101955761211191600401611e49565b9091565b90602080835192838152019201905f5b8181106121325750505090565b82516001600160401b0316845260209384019390920191600101612125565b602081526001600160401b03825116602082015260208201516005811015610c645760408201526001600160401b03604083015116606082015261010060e06121c26121ac6060860151846080870152610120860190612115565b6080860151858203601f190160a0870152612115565b936001600160401b0360a08201511660c08501526001600160401b0360c082015116828501520151151591015290565b6004811015610c6457600452565b906004821015610c645752565b6001600160401b036001911601906001600160401b03821161222b57565b634e487b7160e01b5f52601160045260245ffd5b9291926001600160401b0382116104ac5760405191612268601f8201601f191660200184611f4d565b829481845281830111610195578281602093845f960137010152565b906004811015610c6457815460ff60e01b191660e09190911b60ff60e01b16179055565b8181106122b3575050565b5f81556001016122a8565b9190601f81116122cd57505050565b611fa6925f5260205f20906020601f840160051c830193106122f7575b601f0160051c01906122a8565b90915081906122ea565b908060209392818452848401375f828201840152601f01601f1916010190565b9067ffffffffffffffff60401b82549160401b169067ffffffffffffffff60401b1916179055565b919091805483101561236a575f52601860205f208360021c019260031b1690565b634e487b7160e01b5f52603260045260245ffd5b8054680100000000000000008110156104ac576123a091600182018155612349565b6001600160401b0380839493549260031b9316831b921b1916179055565b916020908281520191905f905b8082106123d85750505090565b9091928335906001600160401b038216820361019557602080916001600160401b036001941681520194019201906123cb565b6040906124249492151581528160208201520191612301565b90565b6040519061010082018281106001600160401b038211176104ac576040525f60e083828152826020820152826040820152606080820152606060808201528260a08201528260c08201520152565b6005811015610c645780156115b15760ff600191161b90565b9160018060a01b0382165f52600b60205260405f206001600160401b0384165f5260205260405f20918254935f5b8581106124cd575050505050505f90565b6001600160401b036124df8287612349565b90549060031b1c165f5260056020526124fd84848460405f206129c9565b612509576001016124bc565b505050505050600190565b9061251e826127e9565b9160ff835460e01c166004811015610c64576001036125415750611fa682612825565b6001600160401b03906390a82da560e01b5f521660045260245ffd5b91906001600160401b0316805f52600360205260405f20928354906001600160401b038216156125b7576001600160401b039081169160401c168190036125a2575050565b6301ccdb8560e01b5f5260045260245260445ffd5b8263d1ecb11360e01b5f5260045260245ffd5b919081101561236a5760051b0190565b356001600160401b03811681036101955790565b90915f5b8181106125ff5750505050565b8061261e61261861261360019486896125ca565b6125da565b8561255d565b50016125f2565b906001600160401b038116156126415761263e9161255d565b50565b63cd25d03960e01b5f5260045ffd5b80545f82558061265e575050565b611fa6915f52600360205f20910160021c8101906122a8565b929195979990969899600184019361268e85612650565b6001600160401b0360028201996126a48b612650565b166001600160401b03198254161781556005881015610c6457611fa69b6001600160401b036003836127549b6127549870ffffffffffffffff00000000000000000060ff60401b61273798549360401b16918260ff60401b19851617855560481b169170ffffffffffffffffff00000000000000001916171781550193166001600160401b031984541617835582612321565b805460ff60801b191691151560801b60ff60801b16919091179055565b612ae8565b939192909260018060a01b0384165f52600b60205260405f206001600160401b0386165f5260205260405f20938454955f5b87811061279e5750505050505050505f90565b6001600160401b036127b08289612349565b90549060031b1c165f5260056020526127d0868686868660405f20612b19565b6127dc5760010161278b565b5050505050505050600190565b6001600160401b031690815f52600160205260405f20916001600160401b03835416156128135750565b633ffdcabf60e21b5f5260045260245ffd5b5460401c6001600160a01b031633036110e557565b90612843612427565b9180546001600160401b038116845260ff8160401c16916005831015610c64576001600160401b0360039260ff94602088015260481c16604086015261288b60018201612b52565b606086015261289c60028201612b52565b608086015201546001600160401b03811660a08501526001600160401b038160401c1660c085015260801c16151560e0830152565b91906001600160401b0316805f52600460205260405f20928354906001600160401b0382161561292b576001600160401b039081169160401c16819003612916575050565b6305ffad9b60e21b5f5260045260245260445ffd5b82635d2ea92560e11b5f5260045260245ffd5b92909160018060a01b0383165f52600b60205260405f206001600160401b0385165f5260205260405f20928354945f5b86811061298057505050505050505f90565b6001600160401b036129928288612349565b90549060031b1c165f5260056020526129b18585858560405f20612bca565b6129bd5760010161296e565b50505050505050600190565b9190928254908160c01c5f526004602052612a02856001600160401b0360405f209460801c1694855f52600360205260405f2096612d35565b15612adf576001600160401b0316809203612ad757546001600160401b03811615918215612ab6575b8215612a9e575b508115612a8f575b50612a8957546001600160401b03811615159182612a68575b5081612a5d575090565b60ff915060881c1690565b6001600160401b03919250166001600160401b038260401c1614905f612a53565b50505f90565b60ff915060c81c16155f612a3a565b608082901c6001600160401b0316141591505f612a32565b91506001600160401b0384166001600160401b038260401c16141591612a2b565b505050505f90565b50505050505f90565b90915f5b818110612af95750505050565b80612b13612b0d61261360019486896125ca565b8561237e565b01612aec565b9493926001600160401b0380875460801c16911603612adf5761242494612bca565b6001600160401b0381116104ac5760051b60200190565b908154612b5e81612b3b565b90612b6c6040519283611f4d565b808252601f19612b7b82612b3b565b0136602084013781935f5b828110612b935750505050565b6001600160401b03612ba58284612349565b90549060031b1c1690845181101561236a5760019160208260051b8701015201612b86565b929190918354908160c01c5f5260046020526001600160401b0360405f209260801c1691825f52600360205260405f20936005881015610c64578715612d295785612c159188612d35565b15612d1e5754906001600160401b03821615928315612cfd575b8315612ce5575b508215612cc0575b508115612cb1575b50612ad757546001600160401b03811615918215612c8f575b508115612c80575b50612a89576003612c7a91015491612475565b16151590565b60ff915060881c16155f612c67565b6001600160401b03919250166001600160401b038260401c161415905f612c5f565b60ff915060c81c16155f612c46565b90915060ff8260c01c16612cd38261200e565b612cdc8161200e565b1415905f612c3e565b608083901c6001600160401b0316141592505f612c36565b92506001600160401b0385166001600160401b038360401c16141592612c2f565b505050505050505f90565b50505050505050505f90565b906001600160401b03421692600483015460ff8160801c1615908115612de1575b50612ad7576001830154916001600160a01b0380841691161480159190612dc6575b50612dbf5760a01c6001600160401b03168210612a8957600201546001600160401b03168015159182612db5575b5050612db157600190565b5f90565b1190505f80612da6565b5050505f90565b90506001600160401b0380845460401c16911614155f612d78565b60ff915060881c165f612d5656fea2646970667358221220d0765f635f9c87a31ac36a1b018c9c33b824eeaddb5fa562287d13fb1793728064736f6c634300081c0033",
  "linkReferences": {},
  "deployedLinkReferences": {},
  "immutableReferences": {},
  "inputSourceName": "project/contracts/GovCore.sol",
  "buildInfoId": "solc-0_8_28-9653b966b156b58d56ad65b45bdeaa94e1ff7ee9"
}